{
  "_format": "hh-sol-artifact-1",
  "contractName": "AquaFactory",
  "sourceName": "contracts/AquaFactory.sol",
  "abi": [
    {
      "inputs": [
        {
          "internalType": "address",
          "name": "_feeManager",
          "type": "address"
        },
        {
          "internalType": "address",
          "name": "_feeTo",
          "type": "address"
        },
        {
          "internalType": "address",
          "name": "_templateManager",
          "type": "address"
        },
        {
          "internalType": "uint256",
          "name": "_templateFee",
          "type": "uint256"
        },
        {
          "internalType": "uint256",
          "name": "_feeNumerator",
          "type": "uint256"
        },
        {
          "internalType": "uint256",
          "name": "_saleFee",
          "type": "uint256"
        }
      ],
      "stateMutability": "nonpayable",
      "type": "constructor"
    },
    {
      "anonymous": false,
      "inputs": [
        {
          "indexed": false,
          "internalType": "address",
          "name": "feeManager",
          "type": "address"
        },
        {
          "indexed": false,
          "internalType": "address",
          "name": "feeTo",
          "type": "address"
        },
        {
          "indexed": false,
          "internalType": "address",
          "name": "templateManager",
          "type": "address"
        },
        {
          "indexed": false,
          "internalType": "uint256",
          "name": "templateFee",
          "type": "uint256"
        },
        {
          "indexed": false,
          "internalType": "uint256",
          "name": "feeNumerator",
          "type": "uint256"
        },
        {
          "indexed": false,
          "internalType": "uint256",
          "name": "saleFee",
          "type": "uint256"
        }
      ],
      "name": "FactoryInitialized",
      "type": "event"
    },
    {
      "anonymous": false,
      "inputs": [
        {
          "indexed": true,
          "internalType": "address",
          "name": "feeManager",
          "type": "address"
        }
      ],
      "name": "FeeManagerUpdated",
      "type": "event"
    },
    {
      "anonymous": false,
      "inputs": [
        {
          "indexed": true,
          "internalType": "uint256",
          "name": "feeNumerator",
          "type": "uint256"
        }
      ],
      "name": "FeeNumeratorUpdated",
      "type": "event"
    },
    {
      "anonymous": false,
      "inputs": [
        {
          "indexed": true,
          "internalType": "address",
          "name": "feeTo",
          "type": "address"
        }
      ],
      "name": "FeeToUpdated",
      "type": "event"
    },
    {
      "anonymous": false,
      "inputs": [
        {
          "indexed": true,
          "internalType": "uint256",
          "name": "saleFee",
          "type": "uint256"
        }
      ],
      "name": "SaleFeeUpdated",
      "type": "event"
    },
    {
      "anonymous": false,
      "inputs": [
        {
          "indexed": true,
          "internalType": "uint256",
          "name": "templateFee",
          "type": "uint256"
        }
      ],
      "name": "TemplateFeeUpdated",
      "type": "event"
    },
    {
      "anonymous": false,
      "inputs": [
        {
          "indexed": true,
          "internalType": "address",
          "name": "template",
          "type": "address"
        },
        {
          "indexed": false,
          "internalType": "uint256",
          "name": "templateId",
          "type": "uint256"
        }
      ],
      "name": "TemplateLaunched",
      "type": "event"
    },
    {
      "anonymous": false,
      "inputs": [
        {
          "indexed": true,
          "internalType": "address",
          "name": "templateLauncher",
          "type": "address"
        }
      ],
      "name": "TemplateLauncherUpdated",
      "type": "event"
    },
    {
      "anonymous": false,
      "inputs": [
        {
          "indexed": true,
          "internalType": "address",
          "name": "templateManager",
          "type": "address"
        }
      ],
      "name": "TemplateManagerUpdated",
      "type": "event"
    },
    {
      "inputs": [
        {
          "internalType": "uint256",
          "name": "",
          "type": "uint256"
        }
      ],
      "name": "allTemplates",
      "outputs": [
        {
          "internalType": "address",
          "name": "",
          "type": "address"
        }
      ],
      "stateMutability": "view",
      "type": "function"
    },
    {
      "inputs": [],
      "name": "feeDenominator",
      "outputs": [
        {
          "internalType": "uint256",
          "name": "",
          "type": "uint256"
        }
      ],
      "stateMutability": "view",
      "type": "function"
    },
    {
      "inputs": [],
      "name": "feeManager",
      "outputs": [
        {
          "internalType": "address",
          "name": "",
          "type": "address"
        }
      ],
      "stateMutability": "view",
      "type": "function"
    },
    {
      "inputs": [],
      "name": "feeNumerator",
      "outputs": [
        {
          "internalType": "uint256",
          "name": "",
          "type": "uint256"
        }
      ],
      "stateMutability": "view",
      "type": "function"
    },
    {
      "inputs": [],
      "name": "feeTo",
      "outputs": [
        {
          "internalType": "address",
          "name": "",
          "type": "address"
        }
      ],
      "stateMutability": "view",
      "type": "function"
    },
    {
      "inputs": [],
      "name": "initialized",
      "outputs": [
        {
          "internalType": "bool",
          "name": "",
          "type": "bool"
        }
      ],
      "stateMutability": "view",
      "type": "function"
    },
    {
      "inputs": [
        {
          "internalType": "uint256",
          "name": "_templateId",
          "type": "uint256"
        },
        {
          "internalType": "bytes",
          "name": "_data",
          "type": "bytes"
        },
        {
          "internalType": "string",
          "name": "_metaData",
          "type": "string"
        }
      ],
      "name": "launchTemplate",
      "outputs": [
        {
          "internalType": "address",
          "name": "newTemplate",
          "type": "address"
        }
      ],
      "stateMutability": "payable",
      "type": "function"
    },
    {
      "inputs": [],
      "name": "numberOfTemplates",
      "outputs": [
        {
          "internalType": "uint256",
          "name": "",
          "type": "uint256"
        }
      ],
      "stateMutability": "view",
      "type": "function"
    },
    {
      "inputs": [],
      "name": "saleFee",
      "outputs": [
        {
          "internalType": "uint256",
          "name": "",
          "type": "uint256"
        }
      ],
      "stateMutability": "view",
      "type": "function"
    },
    {
      "inputs": [
        {
          "internalType": "address",
          "name": "_feeManager",
          "type": "address"
        }
      ],
      "name": "setFeeManager",
      "outputs": [],
      "stateMutability": "nonpayable",
      "type": "function"
    },
    {
      "inputs": [
        {
          "internalType": "uint256",
          "name": "_feeNumerator",
          "type": "uint256"
        }
      ],
      "name": "setFeeNumerator",
      "outputs": [],
      "stateMutability": "nonpayable",
      "type": "function"
    },
    {
      "inputs": [
        {
          "internalType": "address",
          "name": "_feeTo",
          "type": "address"
        }
      ],
      "name": "setFeeTo",
      "outputs": [],
      "stateMutability": "nonpayable",
      "type": "function"
    },
    {
      "inputs": [
        {
          "internalType": "uint256",
          "name": "_saleFee",
          "type": "uint256"
        }
      ],
      "name": "setSaleFee",
      "outputs": [],
      "stateMutability": "nonpayable",
      "type": "function"
    },
    {
      "inputs": [
        {
          "internalType": "uint256",
          "name": "_templateFee",
          "type": "uint256"
        }
      ],
      "name": "setTemplateFee",
      "outputs": [],
      "stateMutability": "nonpayable",
      "type": "function"
    },
    {
      "inputs": [
        {
          "internalType": "address",
          "name": "_templateLauncher",
          "type": "address"
        }
      ],
      "name": "setTemplateLauncher",
      "outputs": [],
      "stateMutability": "nonpayable",
      "type": "function"
    },
    {
      "inputs": [
        {
          "internalType": "address",
          "name": "_templateManager",
          "type": "address"
        }
      ],
      "name": "setTemplateManager",
      "outputs": [],
      "stateMutability": "nonpayable",
      "type": "function"
    },
    {
      "inputs": [],
      "name": "templateFee",
      "outputs": [
        {
          "internalType": "uint256",
          "name": "",
          "type": "uint256"
        }
      ],
      "stateMutability": "view",
      "type": "function"
    },
    {
      "inputs": [],
      "name": "templateId",
      "outputs": [
        {
          "internalType": "uint256",
          "name": "",
          "type": "uint256"
        }
      ],
      "stateMutability": "view",
      "type": "function"
    },
    {
      "inputs": [],
      "name": "templateLauncher",
      "outputs": [
        {
          "internalType": "address",
          "name": "",
          "type": "address"
        }
      ],
      "stateMutability": "view",
      "type": "function"
    },
    {
      "inputs": [],
      "name": "templateManager",
      "outputs": [
        {
          "internalType": "address",
          "name": "",
          "type": "address"
        }
      ],
      "stateMutability": "view",
      "type": "function"
    }
  ],
  "bytecode": "0x60a06040526103e86080526009805460ff1916905534801561002057600080fd5b50604051610c18380380610c18833981810160405260c081101561004357600080fd5b50805160208083015160408085015160608087015160808089015160a0998a0151600380546001600160a01b03199081166001600160a01b03808e16918217909355600280548316848d16908117909155600086905560048054909316938a16938417909255600687905560018481556009805460ff1916909117905589519081529a8b015289880152938801839052908701819052978601829052925195969395919492939290917f9ffcda2d78d3ffe548000d594a7eb07140f441fca813cbbee10dcfa5726529f89160c0908290030190a1505050505050608051610ae1610137600039806104ac5250610ae16000f3fe60806040526004361061011f5760003560e01c80637aa77f29116100a0578063d0fb020311610064578063d0fb0203146103f0578063d4c33f2a14610405578063d53952c01461041a578063e86dea4a14610444578063f46901ed146104595761011f565b80637aa77f291461028b57806394190a23146102a05780639afff84414610369578063a45db9111461039c578063bdcafc55146103c65761011f565b8063407e9fd1116100e7578063407e9fd1146101e4578063472d35b9146101f95780634d68287e1461022e5780635807c1d7146102435780636b0cd167146102585761011f565b8063017e7e5814610124578063158ef93e14610155578063178021e31461017e578063180b0d7e146101a55780631cb08b1c146101ba575b600080fd5b34801561013057600080fd5b5061013961048c565b604080516001600160a01b039092168252519081900360200190f35b34801561016157600080fd5b5061016a61049b565b604080519115158252519081900360200190f35b34801561018a57600080fd5b506101936104a4565b60408051918252519081900360200190f35b3480156101b157600080fd5b506101936104aa565b3480156101c657600080fd5b50610139600480360360208110156101dd57600080fd5b50356104ce565b3480156101f057600080fd5b506101936104f5565b34801561020557600080fd5b5061022c6004803603602081101561021c57600080fd5b50356001600160a01b03166104fb565b005b34801561023a57600080fd5b50610139610592565b34801561024f57600080fd5b506101936105a1565b34801561026457600080fd5b5061022c6004803603602081101561027b57600080fd5b50356001600160a01b03166105a7565b34801561029757600080fd5b5061019361063e565b610139600480360360608110156102b657600080fd5b813591908101906040810160208201356401000000008111156102d857600080fd5b8201836020820111156102ea57600080fd5b8035906020019184600183028401116401000000008311171561030c57600080fd5b91939092909160208101903564010000000081111561032a57600080fd5b82018360208201111561033c57600080fd5b8035906020019184600183028401116401000000008311171561035e57600080fd5b509092509050610644565b34801561037557600080fd5b5061022c6004803603602081101561038c57600080fd5b50356001600160a01b03166107bc565b3480156103a857600080fd5b5061022c600480360360208110156103bf57600080fd5b5035610853565b3480156103d257600080fd5b5061022c600480360360208110156103e957600080fd5b50356108d0565b3480156103fc57600080fd5b50610139610950565b34801561041157600080fd5b5061013961095f565b34801561042657600080fd5b5061022c6004803603602081101561043d57600080fd5b503561096e565b34801561045057600080fd5b506101936109ee565b34801561046557600080fd5b5061022c6004803603602081101561047c57600080fd5b50356001600160a01b03166109f4565b6002546001600160a01b031681565b60095460ff1681565b60015481565b7f000000000000000000000000000000000000000000000000000000000000000081565b600781815481106104db57fe5b6000918252602090912001546001600160a01b0316905081565b60065481565b6003546001600160a01b03163314610548576040805162461bcd60e51b81526020600482015260166024820152600080516020610a8c833981519152604482015290519081900360640190fd5b600380546001600160a01b0319166001600160a01b0383169081179091556040517fe45f5e140399b0a7e12971ab020724b828fbed8ac408c420884dc7d1bbe506b490600090a250565b6005546001600160a01b031681565b60075490565b6004546001600160a01b031633146105f4576040805162461bcd60e51b81526020600482015260166024820152600080516020610a8c833981519152604482015290519081900360640190fd5b600580546001600160a01b0319166001600160a01b0383169081179091556040517f5484582c098b6ff9349b03c14b3507d222292178b04d38759def2bf198e4705a90600090a250565b60085481565b600554604051638c2d1b3d60e01b8152600481018781523360648301819052608060248401908152608484018890526000946001600160a01b031693638c2d1b3d9334938c938c938c938c938c939092604481019060a401888880828437600083820152601f01601f191690910184810383528681526020019050868680828437600081840152601f19601f820116905080830192505050985050505050505050506020604051808303818588803b1580156106ff57600080fd5b505af1158015610713573d6000803e3d6000fd5b50505050506040513d602081101561072a57600080fd5b5051600780546001810182556000919091527fa66cc928b5edb82af9bd49922954155ab7b0942694bea4ce44661d9a8736c6880180546001600160a01b0383166001600160a01b0319909116811790915560408051898152905192935090917fb4e0c04d31936037ef6d0ff42d7e7dbea22f4842fecb0702df62c79e70d918619181900360200190a295945050505050565b6004546001600160a01b03163314610809576040805162461bcd60e51b81526020600482015260166024820152600080516020610a8c833981519152604482015290519081900360640190fd5b600480546001600160a01b0319166001600160a01b0383169081179091556040517f56118b9d287e976be3c7b6c0cc57949fae52bf5faf6fe66f083aa20096e364ca90600090a250565b6003546001600160a01b031633146108a0576040805162461bcd60e51b81526020600482015260166024820152600080516020610a8c833981519152604482015290519081900360640190fd5b600081815560405182917f9ab137d5fa9c57dbb91c539596b7aefa68e0448c52288ced3524cd9982d35ab291a250565b6003546001600160a01b0316331461091d576040805162461bcd60e51b81526020600482015260166024820152600080516020610a8c833981519152604482015290519081900360640190fd5b600181905560405181907f3129a3f705510d13754b1b445f0c1156bbf9fd8b88927ebfc2a88bc53189a9fa90600090a250565b6003546001600160a01b031681565b6004546001600160a01b031681565b6003546001600160a01b031633146109bb576040805162461bcd60e51b81526020600482015260166024820152600080516020610a8c833981519152604482015290519081900360640190fd5b600681905560405181907f939189c3d57e88045b32831d39dc320fc7eb36c1fb3f12c6560f48947003faf390600090a250565b60005481565b6003546001600160a01b03163314610a41576040805162461bcd60e51b81526020600482015260166024820152600080516020610a8c833981519152604482015290519081900360640190fd5b600280546001600160a01b0319166001600160a01b0383169081179091556040517f9887df018dfa75103faf0f1388028e55a1124783c285d8d2cbcf62a067a6b84490600090a25056fe41717561466163746f72793a20464f5242494444454e00000000000000000000a2646970667358221220750cb16eb83abce209a55c5f579232b9e8687d8ac016122240fceea87678a7b964736f6c634300060c0033",
  "linkReferences": {},
  "deployedLinkReferences": {}
}