{
  "_format": "hh-sol-artifact-1",
  "contractName": "FairSale",
  "sourceName": "contracts/sales/FairSale.sol",
  "abi": [
    {
      "inputs": [],
      "stateMutability": "nonpayable",
      "type": "constructor"
    },
    {
      "anonymous": false,
      "inputs": [
        {
          "indexed": false,
          "internalType": "uint96",
          "name": "soldTokenOuts",
          "type": "uint96"
        },
        {
          "indexed": false,
          "internalType": "uint96",
          "name": "soldTokenIns",
          "type": "uint96"
        },
        {
          "indexed": false,
          "internalType": "bytes32",
          "name": "clearingPriceOrder",
          "type": "bytes32"
        }
      ],
      "name": "AuctionCleared",
      "type": "event"
    },
    {
      "anonymous": false,
      "inputs": [
        {
          "indexed": true,
          "internalType": "contract IERC20",
          "name": "tokenOut",
          "type": "address"
        },
        {
          "indexed": true,
          "internalType": "contract IERC20",
          "name": "tokenIn",
          "type": "address"
        },
        {
          "indexed": false,
          "internalType": "uint256",
          "name": "orderCancellationEndDate",
          "type": "uint256"
        },
        {
          "indexed": false,
          "internalType": "uint256",
          "name": "auctionEndDate",
          "type": "uint256"
        },
        {
          "indexed": false,
          "internalType": "uint64",
          "name": "userId",
          "type": "uint64"
        },
        {
          "indexed": false,
          "internalType": "uint96",
          "name": "auctionedSellAmount",
          "type": "uint96"
        },
        {
          "indexed": false,
          "internalType": "uint96",
          "name": "minBuyAmount",
          "type": "uint96"
        },
        {
          "indexed": false,
          "internalType": "uint256",
          "name": "minimumBiddingAmountPerOrder",
          "type": "uint256"
        },
        {
          "indexed": false,
          "internalType": "uint256",
          "name": "minFundingThreshold",
          "type": "uint256"
        }
      ],
      "name": "AuctionInitialized",
      "type": "event"
    },
    {
      "anonymous": false,
      "inputs": [
        {
          "indexed": true,
          "internalType": "uint64",
          "name": "userId",
          "type": "uint64"
        },
        {
          "indexed": false,
          "internalType": "uint96",
          "name": "buyAmount",
          "type": "uint96"
        },
        {
          "indexed": false,
          "internalType": "uint96",
          "name": "sellAmount",
          "type": "uint96"
        }
      ],
      "name": "CancellationSellOrder",
      "type": "event"
    },
    {
      "anonymous": false,
      "inputs": [
        {
          "indexed": true,
          "internalType": "uint64",
          "name": "userId",
          "type": "uint64"
        },
        {
          "indexed": false,
          "internalType": "uint96",
          "name": "buyAmount",
          "type": "uint96"
        },
        {
          "indexed": false,
          "internalType": "uint96",
          "name": "sellAmount",
          "type": "uint96"
        }
      ],
      "name": "ClaimedFromOrder",
      "type": "event"
    },
    {
      "anonymous": false,
      "inputs": [
        {
          "indexed": true,
          "internalType": "uint64",
          "name": "userId",
          "type": "uint64"
        },
        {
          "indexed": false,
          "internalType": "uint96",
          "name": "buyAmount",
          "type": "uint96"
        },
        {
          "indexed": false,
          "internalType": "uint96",
          "name": "sellAmount",
          "type": "uint96"
        }
      ],
      "name": "NewSellOrder",
      "type": "event"
    },
    {
      "anonymous": false,
      "inputs": [
        {
          "indexed": true,
          "internalType": "uint64",
          "name": "userId",
          "type": "uint64"
        },
        {
          "indexed": true,
          "internalType": "address",
          "name": "userAddress",
          "type": "address"
        }
      ],
      "name": "NewUser",
      "type": "event"
    },
    {
      "anonymous": false,
      "inputs": [
        {
          "indexed": true,
          "internalType": "address",
          "name": "user",
          "type": "address"
        },
        {
          "indexed": false,
          "internalType": "uint64",
          "name": "userId",
          "type": "uint64"
        }
      ],
      "name": "UserRegistration",
      "type": "event"
    },
    {
      "inputs": [],
      "name": "TEMPLATE_NAME",
      "outputs": [
        {
          "internalType": "string",
          "name": "",
          "type": "string"
        }
      ],
      "stateMutability": "view",
      "type": "function"
    },
    {
      "inputs": [],
      "name": "auctionEndDate",
      "outputs": [
        {
          "internalType": "uint256",
          "name": "",
          "type": "uint256"
        }
      ],
      "stateMutability": "view",
      "type": "function"
    },
    {
      "inputs": [
        {
          "internalType": "bytes32[]",
          "name": "_sellOrders",
          "type": "bytes32[]"
        }
      ],
      "name": "cancelSellOrders",
      "outputs": [],
      "stateMutability": "nonpayable",
      "type": "function"
    },
    {
      "inputs": [
        {
          "internalType": "bytes32[]",
          "name": "orders",
          "type": "bytes32[]"
        }
      ],
      "name": "claimFromParticipantOrder",
      "outputs": [
        {
          "internalType": "uint256",
          "name": "sumTokenOutAmount",
          "type": "uint256"
        },
        {
          "internalType": "uint256",
          "name": "sumTokenInAmount",
          "type": "uint256"
        }
      ],
      "stateMutability": "nonpayable",
      "type": "function"
    },
    {
      "inputs": [],
      "name": "clearingPriceOrder",
      "outputs": [
        {
          "internalType": "bytes32",
          "name": "",
          "type": "bytes32"
        }
      ],
      "stateMutability": "view",
      "type": "function"
    },
    {
      "inputs": [
        {
          "internalType": "bytes32",
          "name": "order",
          "type": "bytes32"
        }
      ],
      "name": "containsOrder",
      "outputs": [
        {
          "internalType": "bool",
          "name": "",
          "type": "bool"
        }
      ],
      "stateMutability": "view",
      "type": "function"
    },
    {
      "inputs": [],
      "name": "getSecondsRemainingInBatch",
      "outputs": [
        {
          "internalType": "uint256",
          "name": "",
          "type": "uint256"
        }
      ],
      "stateMutability": "view",
      "type": "function"
    },
    {
      "inputs": [
        {
          "internalType": "address",
          "name": "user",
          "type": "address"
        }
      ],
      "name": "getUserId",
      "outputs": [
        {
          "internalType": "uint64",
          "name": "userId",
          "type": "uint64"
        }
      ],
      "stateMutability": "nonpayable",
      "type": "function"
    },
    {
      "inputs": [
        {
          "internalType": "bytes",
          "name": "_data",
          "type": "bytes"
        }
      ],
      "name": "init",
      "outputs": [],
      "stateMutability": "nonpayable",
      "type": "function"
    },
    {
      "inputs": [],
      "name": "initialAuctionOrder",
      "outputs": [
        {
          "internalType": "bytes32",
          "name": "",
          "type": "bytes32"
        }
      ],
      "stateMutability": "view",
      "type": "function"
    },
    {
      "inputs": [],
      "name": "initialized",
      "outputs": [
        {
          "internalType": "bool",
          "name": "",
          "type": "bool"
        }
      ],
      "stateMutability": "view",
      "type": "function"
    },
    {
      "inputs": [],
      "name": "interimOrder",
      "outputs": [
        {
          "internalType": "bytes32",
          "name": "",
          "type": "bytes32"
        }
      ],
      "stateMutability": "view",
      "type": "function"
    },
    {
      "inputs": [],
      "name": "interimSumBidAmount",
      "outputs": [
        {
          "internalType": "uint256",
          "name": "",
          "type": "uint256"
        }
      ],
      "stateMutability": "view",
      "type": "function"
    },
    {
      "inputs": [],
      "name": "isAtomicClosureAllowed",
      "outputs": [
        {
          "internalType": "bool",
          "name": "",
          "type": "bool"
        }
      ],
      "stateMutability": "view",
      "type": "function"
    },
    {
      "inputs": [],
      "name": "minFundingThreshold",
      "outputs": [
        {
          "internalType": "uint256",
          "name": "",
          "type": "uint256"
        }
      ],
      "stateMutability": "view",
      "type": "function"
    },
    {
      "inputs": [],
      "name": "minFundingThresholdNotReached",
      "outputs": [
        {
          "internalType": "bool",
          "name": "",
          "type": "bool"
        }
      ],
      "stateMutability": "view",
      "type": "function"
    },
    {
      "inputs": [],
      "name": "minimumBiddingAmountPerOrder",
      "outputs": [
        {
          "internalType": "uint256",
          "name": "",
          "type": "uint256"
        }
      ],
      "stateMutability": "view",
      "type": "function"
    },
    {
      "inputs": [],
      "name": "numUsers",
      "outputs": [
        {
          "internalType": "uint64",
          "name": "",
          "type": "uint64"
        }
      ],
      "stateMutability": "view",
      "type": "function"
    },
    {
      "inputs": [],
      "name": "orderCancellationEndDate",
      "outputs": [
        {
          "internalType": "uint256",
          "name": "",
          "type": "uint256"
        }
      ],
      "stateMutability": "view",
      "type": "function"
    },
    {
      "inputs": [
        {
          "internalType": "uint96[]",
          "name": "_minBuyAmounts",
          "type": "uint96[]"
        },
        {
          "internalType": "uint96[]",
          "name": "_sellAmounts",
          "type": "uint96[]"
        },
        {
          "internalType": "bytes32[]",
          "name": "_prevSellOrders",
          "type": "bytes32[]"
        }
      ],
      "name": "placeSellOrders",
      "outputs": [
        {
          "internalType": "uint64",
          "name": "userId",
          "type": "uint64"
        }
      ],
      "stateMutability": "nonpayable",
      "type": "function"
    },
    {
      "inputs": [
        {
          "internalType": "uint96[]",
          "name": "_minBuyAmounts",
          "type": "uint96[]"
        },
        {
          "internalType": "uint96[]",
          "name": "_sellAmounts",
          "type": "uint96[]"
        },
        {
          "internalType": "bytes32[]",
          "name": "_prevSellOrders",
          "type": "bytes32[]"
        },
        {
          "internalType": "address",
          "name": "orderSubmitter",
          "type": "address"
        }
      ],
      "name": "placeSellOrdersOnBehalf",
      "outputs": [
        {
          "internalType": "uint64",
          "name": "userId",
          "type": "uint64"
        }
      ],
      "stateMutability": "nonpayable",
      "type": "function"
    },
    {
      "inputs": [
        {
          "internalType": "uint256",
          "name": "iterationSteps",
          "type": "uint256"
        }
      ],
      "name": "precalculateSellAmountSum",
      "outputs": [],
      "stateMutability": "nonpayable",
      "type": "function"
    },
    {
      "inputs": [
        {
          "internalType": "address",
          "name": "user",
          "type": "address"
        }
      ],
      "name": "registerUser",
      "outputs": [
        {
          "internalType": "uint64",
          "name": "userId",
          "type": "uint64"
        }
      ],
      "stateMutability": "nonpayable",
      "type": "function"
    },
    {
      "inputs": [],
      "name": "settleAuction",
      "outputs": [
        {
          "internalType": "bytes32",
          "name": "clearingOrder",
          "type": "bytes32"
        }
      ],
      "stateMutability": "nonpayable",
      "type": "function"
    },
    {
      "inputs": [
        {
          "internalType": "uint96[]",
          "name": "_minBuyAmount",
          "type": "uint96[]"
        },
        {
          "internalType": "uint96[]",
          "name": "_sellAmount",
          "type": "uint96[]"
        },
        {
          "internalType": "bytes32[]",
          "name": "_prevSellOrder",
          "type": "bytes32[]"
        }
      ],
      "name": "settleAuctionAtomically",
      "outputs": [],
      "stateMutability": "nonpayable",
      "type": "function"
    },
    {
      "inputs": [],
      "name": "tokenIn",
      "outputs": [
        {
          "internalType": "contract IERC20",
          "name": "",
          "type": "address"
        }
      ],
      "stateMutability": "view",
      "type": "function"
    },
    {
      "inputs": [],
      "name": "tokenOut",
      "outputs": [
        {
          "internalType": "contract IERC20",
          "name": "",
          "type": "address"
        }
      ],
      "stateMutability": "view",
      "type": "function"
    },
    {
      "inputs": [],
      "name": "volumeClearingPriceOrder",
      "outputs": [
        {
          "internalType": "uint96",
          "name": "",
          "type": "uint96"
        }
      ],
      "stateMutability": "view",
      "type": "function"
    }
  ],
  "bytecode": "0x608060405234801561001057600080fd5b50600080546001600160a01b03191633179055612fff806100326000396000f3fe608060405234801561001057600080fd5b50600436106101c45760003560e01c80636daf390b116100f9578063ac61a28511610097578063d4dda12f11610071578063d4dda12f14610712578063d63bc2a51461071a578063de5f252e146108ca578063f1e2fc4f14610a6f576101c4565b8063ac61a28514610661578063b90545ee14610702578063d0202d3b1461070a576101c4565b80638eb54efa116100d35780638eb54efa1461062c57806392f987be14610634578063a4d0a17e1461063c578063a90c8c8d14610644576101c4565b80636daf390b1461045b578063724acaac1461047f578063757a1d2814610624576101c4565b806338474ff511610166578063459b72d511610140578063459b72d5146103215780634ddf47d41461032957806352b2cf4f146103995780635f2aee4114610453576101c4565b806338474ff5146102f45780633d827e05146102fc578063422e6fa014610304576101c4565b80632199d5cd116101a25780632199d5cd14610223578063257d33ff146102495780632898f7d1146102515780632b956ff7146102ce576101c4565b8063158ef93e146101c957806317569c1d146101e557806319a50f49146101ff575b600080fd5b6101d1610a93565b604080519115158252519081900360200190f35b6101ed610a9c565b60408051918252519081900360200190f35b610207610ac3565b604080516001600160401b039092168252519081900360200190f35b6102076004803603602081101561023957600080fd5b50356001600160a01b0316610ad2565b6101ed610bc7565b610259610bcd565b6040805160208082528351818301528351919283929083019185019080838360005b8381101561029357818101518382015260200161027b565b50505050905090810190601f1680156102c05780820380516001836020036101000a031916815260200191505b509250505060405180910390f35b610207600480360360208110156102e457600080fd5b50356001600160a01b0316610bf1565b6101d1610c66565b6101ed610c76565b6101d16004803603602081101561031a57600080fd5b5035610c7c565b6101d1610c8f565b6103976004803603602081101561033f57600080fd5b810190602081018135600160201b81111561035957600080fd5b82018360208201111561036b57600080fd5b803590602001918460018302840111600160201b8311171561038c57600080fd5b509092509050610c9f565b005b61043a600480360360208110156103af57600080fd5b810190602081018135600160201b8111156103c957600080fd5b8201836020820111156103db57600080fd5b803590602001918460208302840111600160201b831117156103fc57600080fd5b919080806020026020016040519081016040528093929190818152602001838360200280828437600092019190915250929550610dde945050505050565b6040805192835260208301919091528051918290030190f35b6101ed6110fe565b610463611104565b604080516001600160a01b039092168252519081900360200190f35b6102076004803603606081101561049557600080fd5b810190602081018135600160201b8111156104af57600080fd5b8201836020820111156104c157600080fd5b803590602001918460208302840111600160201b831117156104e257600080fd5b9190808060200260200160405190810160405280939291908181526020018383602002808284376000920191909152509295949360208101935035915050600160201b81111561053157600080fd5b82018360208201111561054357600080fd5b803590602001918460208302840111600160201b8311171561056457600080fd5b9190808060200260200160405190810160405280939291908181526020018383602002808284376000920191909152509295949360208101935035915050600160201b8111156105b357600080fd5b8201836020820111156105c557600080fd5b803590602001918460208302840111600160201b831117156105e657600080fd5b919080806020026020016040519081016040528093929190818152602001838360200280828437600092019190915250929550611113945050505050565b6101ed61116b565b6101ed611171565b6101ed611177565b6101ed61117d565b6103976004803603602081101561065a57600080fd5b503561143f565b6103976004803603602081101561067757600080fd5b810190602081018135600160201b81111561069157600080fd5b8201836020820111156106a357600080fd5b803590602001918460208302840111600160201b831117156106c457600080fd5b919080806020026020016040519081016040528093929190818152602001838360200280828437600092019190915250929550611602945050505050565b6101ed611787565b61046361178d565b6101ed61179c565b6102076004803603608081101561073057600080fd5b810190602081018135600160201b81111561074a57600080fd5b82018360208201111561075c57600080fd5b803590602001918460208302840111600160201b8311171561077d57600080fd5b9190808060200260200160405190810160405280939291908181526020018383602002808284376000920191909152509295949360208101935035915050600160201b8111156107cc57600080fd5b8201836020820111156107de57600080fd5b803590602001918460208302840111600160201b831117156107ff57600080fd5b9190808060200260200160405190810160405280939291908181526020018383602002808284376000920191909152509295949360208101935035915050600160201b81111561084e57600080fd5b82018360208201111561086057600080fd5b803590602001918460208302840111600160201b8311171561088157600080fd5b919080806020026020016040519081016040528093929190818152602001838360200280828437600092019190915250929550505090356001600160a01b031691506117a29050565b610397600480360360608110156108e057600080fd5b810190602081018135600160201b8111156108fa57600080fd5b82018360208201111561090c57600080fd5b803590602001918460208302840111600160201b8311171561092d57600080fd5b9190808060200260200160405190810160405280939291908181526020018383602002808284376000920191909152509295949360208101935035915050600160201b81111561097c57600080fd5b82018360208201111561098e57600080fd5b803590602001918460208302840111600160201b831117156109af57600080fd5b9190808060200260200160405190810160405280939291908181526020018383602002808284376000920191909152509295949360208101935035915050600160201b8111156109fe57600080fd5b820183602082011115610a1057600080fd5b803590602001918460208302840111600160201b83111715610a3157600080fd5b9190808060200260200160405190810160405280939291908181526020018383602002808284376000920191909152509295506117f9945050505050565b610a7761198b565b604080516001600160601b039092168252519081900360200190f35b600e5460ff1681565b6000426004541015610ab057506000610ac0565b600454610abd904261199a565b90505b90565b6011546001600160401b031681565b601154600090610af590610af0906001600160401b031660016119f7565b611a51565b6011805467ffffffffffffffff19166001600160401b039283161790819055610b2291600f911684611a9e565b610b73576040805162461bcd60e51b815260206004820152601760248201527f5573657220616c72656164792072656769737465726564000000000000000000604482015290519081900360640190fd5b50601154604080516001600160401b03909216808352905190916001600160a01b038416917f6838f67cb358c332087b73dbe769a6c869a5f87225236c16dda5d0013a77074c9181900360200190a2919050565b60085481565b604051806040016040528060088152602001674661697253616c6560c01b81525081565b6000610bfe600f83611c16565b15610c1557610c0e600f83611c40565b9050610c61565b610c1e82610ad2565b9050816001600160a01b0316816001600160401b03167f969d438b19b6b5fb3c0d3c6f16867e519fcec4233799d6be29d1c00f2045ba2660405160405180910390a35b919050565b600a54600160601b900460ff1681565b60045481565b6000610c89600c83611cca565b92915050565b600a54600160681b900460ff1681565b600e5460ff1615610ced576040805162461bcd60e51b8152602060048201526013602482015272185b1c9958591e481a5b9a5d1a585b1a5e9959606a1b604482015290519081900360640190fd5b6000546001600160a01b03163314610d4c576040805162461bcd60e51b815260206004820152601960248201527f4669786564507269636553616c653a20464f5242494444454e00000000000000604482015290519081900360640190fd5b60008060008060008060008060008a8a610120811015610d6b57600080fd5b506001600160a01b03813581169a50602082013516985060408101359750606081013596506001600160601b0360808201358116965060a082013516945060c0810135935060e08101359250610100013515159050610dd1898989898989898989611cf3565b5050505050505050505050565b6009546000908190610e37576040805162461bcd60e51b815260206004820152601860248201527f41756374696f6e206e6f74207965742066696e69736865640000000000000000604482015290519081900360640190fd5b60005b8351811015610ec357610e6a848281518110610e5257fe5b6020026020010151600c611fa390919063ffffffff16565b610ebb576040805162461bcd60e51b815260206004820152601c60248201527f6f72646572206973206e6f206c6f6e67657220636c61696d61626c6500000000604482015290519081900360640190fd5b600101610e3a565b50600080610ed2600954611fcf565b92509250506000610ef686600081518110610ee957fe5b6020026020010151611fcf565b5050905060005b86518110156110ea576000806000610f1a8a8581518110610ee957fe5b925092509250846001600160401b0316836001600160401b031614610f705760405162461bcd60e51b8152600401808060200182810382526023815260200180612eb46023913960400191505060405180910390fd5b600a54600160601b900460ff1615610f9c57610f95886001600160601b0383166119f7565b9750611092565b6009548a8581518110610fab57fe5b6020026020010151141561101357600a54610fec90610fe5906001600160601b03808a1691610fdf91908116908c16611fde565b90612037565b8a906119f7565b600a54909950610f959061100c906001600160601b03848116911661199a565b89906119f7565b61103b6009548b868151811061102557fe5b602002602001015161209e90919063ffffffff16565b1561107c57611075610fe5876001600160601b0316610fdf8a6001600160601b0316856001600160601b0316611fde90919063ffffffff16565b9850611092565b61108f886001600160601b0383166119f7565b97505b604080516001600160601b0380851682528316602082015281516001600160401b038816927ff75ff0412dab9132bc6907f911ff4b016eef8911771400efa692b1868162700f928290030190a2505050600101610efd565b506110f6858583612225565b505050915091565b60095481565b6002546001600160a01b031681565b600060045442106111555760405162461bcd60e51b8152600401808060200182810382526022815260200180612fa86022913960400191505060405180910390fd5b61116184848433612274565b90505b9392505050565b60065481565b600b5481565b60055481565b60045460009080158015906111925750804210155b801561119e5750600954155b6111d95760405162461bcd60e51b8152600401808060200182810382526028815260200180612ed76028913960400191505060405180910390fd5b5060008060006111ea600554611fcf565b600754600854939650919450925090600080845b600061120b600c86612552565b90506002600160601b03198114156112235750611272565b80945061122f85611fcf565b6001600160601b03918216965016935061124b905086846119f7565b955061126290506001600160601b03871683611fde565b61126c8685611fde565b106111fe575b60008511801561129d57506112906001600160601b03871683611fde565b61129a8685611fde565b10155b156113485760006112c56112be85610fdf6001600160601b038b1687611fde565b879061199a565b905080831061131f5760006112da848361199a565b90506112e5816125e6565b600a80546bffffffffffffffffffffffff19166001600160601b0392909216919091179055611314878361199a565b9650859a5050611342565b611329868461199a565b955061133f60008861133a896125e6565b61262a565b99505b506113b1565b866001600160601b031685111561136f5761136860008761133a886125e6565b98506113b1565b61137b6000878961262a565b98506113ae6113a9886001600160601b0316610fdf896001600160601b031689611fde90919063ffffffff16565b6125e6565b90505b6009899055600b548510156113d457600a805460ff60601b1916600160601b1790555b604080516001600160601b038084168252871660208201528082018b905290517f7fbd6633ec7ba81b40067a45fe5b8351c03e9e3765569f20247044ec4247b5319181900360600190a150506000600581905560088190556007819055600655509495945050505050565b60045480158015906114515750804210155b801561145d5750600954155b6114985760405162461bcd60e51b8152600401808060200182810382526028815260200180612ed76028913960400191505060405180910390fd5b5060006114a6600554611fcf565b6007546008549194509250905060005b848110156114fa576114c9600c83612552565b915060006114d683611fcf565b92506114ef91508590506001600160601b0383166119f7565b9350506001016114b6565b506002600160601b0319811415611558576040805162461bcd60e51b815260206004820152601960248201527f7265616368656420656e64206f66206f72646572206c69737400000000000000604482015290519081900360640190fd5b60008061156483611fcf565b925092505061158e816001600160601b0316866001600160601b0316611fde90919063ffffffff16565b6115a1856001600160601b038516611fde565b106115f3576040805162461bcd60e51b815260206004820152601960248201527f746f6f206d616e79206f72646572732073756d6d656420757000000000000000604482015290519081900360640190fd5b50506007919091556008555050565b60035442106116425760405162461bcd60e51b8152600401808060200182810382526032815260200180612d476032913960400191505060405180910390fd5b600061164d33610bf1565b90506000805b835181101561176a57600061168585838151811061166d57fe5b6020026020010151600c61266290919063ffffffff16565b905080156117615760008060006116a1888681518110610ee957fe5b925092509250866001600160401b0316836001600160401b0316146116f75760405162461bcd60e51b8152600401808060200182810382526023815260200180612d016023913960400191505060405180910390fd5b61170a866001600160601b0383166119f7565b604080516001600160601b0380861682528416602082015281519298506001600160401b038a16927f5dedfbcaa0c7efd84558aac37ed1d1023367d9aa24a3dc41d011d013d3218ab7929181900390910190a25050505b50600101611653565b50600254611782906001600160a01b031633836126b7565b505050565b60035481565b6001546001600160a01b031681565b60075481565b600060045442106117e45760405162461bcd60e51b8152600401808060200182810382526022815260200180612fa86022913960400191505060405180910390fd5b6117f085858585612274565b95945050505050565b600454801580159061180b5750804210155b80156118175750600954155b6118525760405162461bcd60e51b8152600401808060200182810382526028815260200180612ed76028913960400191505060405180910390fd5b50600a54600160681b900460ff1661189b5760405162461bcd60e51b8152600401808060200182810382526028815260200180612ca86028913960400191505060405180910390fd5b825160011480156118ad575081516001145b6118e85760405162461bcd60e51b8152600401808060200182810382526027815260200180612de66027913960400191505060405180910390fd5b60006118f333610bf1565b905061193461192b828660008151811061190957fe5b60200260200101518660008151811061191e57fe5b602002602001015161262a565b6008549061209e565b61196f5760405162461bcd60e51b8152600401808060200182810382526031815260200180612cd06031913960400191505060405180910390fd5b61197b84848433612274565b5061198461117d565b5050505050565b600a546001600160601b031681565b6000828211156119f1576040805162461bcd60e51b815260206004820152601e60248201527f536166654d6174683a207375627472616374696f6e206f766572666c6f770000604482015290519081900360640190fd5b50900390565b600082820183811015611164576040805162461bcd60e51b815260206004820152601b60248201527f536166654d6174683a206164646974696f6e206f766572666c6f770000000000604482015290519081900360640190fd5b6000680100000000000000008210611a9a5760405162461bcd60e51b8152600401808060200182810382526026815260200180612e8e6026913960400191505060405180910390fd5b5090565b60006001600160a01b038216611afb576040805162461bcd60e51b815260206004820152601a60248201527f43616e6e6f7420696e73657274207a65726f2061646472657373000000000000604482015290519081900360640190fd5b6001600160401b038381161415611b59576040805162461bcd60e51b815260206004820152601860248201527f43616e6e6f7420696e73657274206d61782075696e7436340000000000000000604482015290519081900360640190fd5b6001600160a01b03821660009081526001850160205260409020546001600160401b0316151580611bad57506001600160401b0360018401166000908152602085905260409020546001600160a01b031615155b15611bba57506000611164565b5060019182016001600160401b031660008181526020858152604080832080546001600160a01b0319166001600160a01b039690961695861790559382529484019094529220805467ffffffffffffffff191690921790915590565b6001600160a01b0316600090815260019190910160205260409020546001600160401b0316151590565b6000611c4c8383611c16565b611c9d576040805162461bcd60e51b815260206004820152601b60248201527f4d7573742068617665204164647265737320746f206765742049440000000000604482015290519081900360640190fd5b506001600160a01b0316600090815260019190910160205260409020546001600160401b03166000190190565b60006001821415611cdd57506000610c89565b5060009081526020919091526040902054151590565b600e805460ff19166001179055611d1e6001600160a01b03891633306001600160601b038916612709565b6000856001600160601b031611611d7c576040805162461bcd60e51b815260206004820152601a60248201527f63616e6e6f742061756374696f6e207a65726f20746f6b656e73000000000000604482015290519081900360640190fd5b6000846001600160601b031611611dc45760405162461bcd60e51b8152600401808060200182810382526023815260200180612d246023913960400191505060405180910390fd5b60008311611e035760405162461bcd60e51b8152600401808060200182810382526036815260200180612e376036913960400191505060405180910390fd5b85871115611e425760405162461bcd60e51b8152600401808060200182810382526029815260200180612f556029913960400191505060405180910390fd5b428611611e805760405162461bcd60e51b8152600401808060200182810382526026815260200180612dc06026913960400191505060405180910390fd5b611e8a600c612763565b6000611e9533610bf1565b600180546001600160a01b03808d166001600160a01b03199283161790925560028054928e1692909116919091179055600389905560048890559050611edc81868861262a565b6005556006849055600060078190556001600855600955600a80546dffffffffffffffffffffffffffff1916600160681b84151502179055600b83905560408051898152602081018990526001600160401b038316818301526001600160601b0388811660608301528716608082015260a0810186905260c0810185905290516001600160a01b038c811692908c16917f6fd1d7194ddf00deb0b9859cbdd1853d720493e643d37af7a2923b0b41de7dde9160e0908290030190a350505050505050505050565b600080611fb08484612662565b9050801561116457600092835260019390930160205250604081205590565b60c081901c91606082901c9190565b600082611fed57506000610c89565b82820282848281611ffa57fe5b04146111645760405162461bcd60e51b8152600401808060200182810382526021815260200180612e6d6021913960400191505060405180910390fd5b600080821161208d576040805162461bcd60e51b815260206004820152601a60248201527f536166654d6174683a206469766973696f6e206279207a65726f000000000000604482015290519081900360640190fd5b81838161209657fe5b049392505050565b6000806000806120ad86611fcf565b92509250925060008060006120c188611fcf565b919450925090506120de6001600160601b03808416908616611fde565b6120f46001600160601b03878116908416611fde565b10156121095760019650505050505050610c89565b61211f6001600160601b03838116908616611fde565b6121356001600160601b03878116908416611fde565b111561214a5760009650505050505050610c89565b816001600160601b0316856001600160601b031610156121735760019650505050505050610c89565b816001600160601b0316856001600160601b0316111561219c5760009650505050505050610c89565b826001600160401b0316866001600160401b031614156121ed5760405162461bcd60e51b815260040180806020018281038252602d815260200180612eff602d913960400191505060405180910390fd5b826001600160401b0316866001600160401b031610156122165760019650505050505050610c89565b50600098975050505050505050565b6000612232600f8361278f565b9050831561225157600154612251906001600160a01b031682866126b7565b821561226e5760025461226e906001600160a01b031682856126b7565b50505050565b6000806000612284600554611fcf565b925092505060005b8751811015612349576122cd8782815181106122a457fe5b60200260200101516001600160601b0316836001600160601b0316611fde90919063ffffffff16565b612305846001600160601b03168a84815181106122e657fe5b60200260200101516001600160601b0316611fde90919063ffffffff16565b106123415760405162461bcd60e51b8152600401808060200182810382526029815260200180612f2c6029913960400191505060405180910390fd5b60010161228c565b505050600061235783610bf1565b915060005b865181101561253057600087828151811061237357fe5b60200260200101516001600160601b0316116123c05760405162461bcd60e51b8152600401808060200182810382526025815260200180612d796025913960400191505060405180910390fd5b6006548682815181106123cf57fe5b60200260200101516001600160601b031611612424576040805162461bcd60e51b815260206004820152600f60248201526e1bdc99195c881d1bdbc81cdb585b1b608a1b604482015290519081900360640190fd5b61247061244b8489848151811061243757fe5b602002602001015189858151811061191e57fe5b86838151811061245757fe5b6020026020010151600c6128159092919063ffffffff16565b15612528576124a486828151811061248457fe5b60200260200101516001600160601b0316836119f790919063ffffffff16565b9150826001600160401b03167fd281bd4d955b901e3f3d9e94325fd93f97f2a20f3acfd0e0c52eec553208f4958883815181106124dd57fe5b60200260200101518884815181106124f157fe5b602002602001015160405180836001600160601b03168152602001826001600160601b031681526020019250505060405180910390a25b60010161235c565b50600254612549906001600160a01b0316333084612709565b50949350505050565b60006002600160601b031982141561259b5760405162461bcd60e51b8152600401808060200182810382526022815260200180612d9e6022913960400191505060405180910390fd5b600082815260208490526040902054806111645760405162461bcd60e51b815260040180806020018281038252602a815260200180612e0d602a913960400191505060405180910390fd5b6000600160601b8210611a9a5760405162461bcd60e51b8152600401808060200182810382526026815260200180612c826026913960400191505060405180910390fd5b6001600160c01b031960c084901b166bffffffffffffffffffffffff60601b606084901b16016001600160601b038216019392505050565b600061266e8383611cca565b61267a57506000610c89565b5060008181526001838101602081815260408085205487835281862080548288528388208190558752938352908520559383529390925290915590565b604080516001600160a01b038416602482015260448082018490528251808303909101815260649091019091526020810180516001600160e01b031663a9059cbb60e01b1790526117829084906129d6565b604080516001600160a01b0380861660248301528416604482015260648082018490528251808303909101815260849091019091526020810180516001600160e01b03166323b872dd60e01b17905261226e9085906129d6565b60016000818152602083815260408083206002600160601b031990819055835293830190529190912055565b600061279b8383612a87565b6127ec576040805162461bcd60e51b815260206004820152601b60248201527f4d757374206861766520494420746f2067657420416464726573730000000000604482015290519081900360640190fd5b506001016001600160401b0316600090815260209190915260409020546001600160a01b031690565b60008061282184611fcf565b925050506001600160601b038116612880576040805162461bcd60e51b815260206004820152601f60248201527f496e73657274696e67207a65726f206973206e6f7420737570706f7274656400604482015290519081900360640190fd5b6001841480159061289957506002600160601b03198414155b6128ea576040805162461bcd60e51b815260206004820152601e60248201527f496e73657274696e6720656c656d656e74206973206e6f742076616c69640000604482015290519081900360640190fd5b6128f48585611cca565b15612903576000915050611164565b6001831480159061292257506000838152600186016020526040902054155b15612931576000915050611164565b61293b838561209e565b612949576000915050611164565b5b600083815260208690526040902054612975576000928352600185016020526040909220549161294a565b6000835b600081815260208890526040902054909150612995818761209e565b612979576000828152602088815260408083208990558383526001808b0183528184208a905589845281842095909555908990529020559150509392505050565b6060612a2b826040518060400160405280602081526020017f5361666545524332303a206c6f772d6c6576656c2063616c6c206661696c6564815250856001600160a01b0316612ab19092919063ffffffff16565b80519091501561178257808060200190516020811015612a4a57600080fd5b50516117825760405162461bcd60e51b815260040180806020018281038252602a815260200180612f7e602a913960400191505060405180910390fd5b6001016001600160401b0316600090815260209190915260409020546001600160a01b0316151590565b6060611161848460008585612ac585612bd7565b612b16576040805162461bcd60e51b815260206004820152601d60248201527f416464726573733a2063616c6c20746f206e6f6e2d636f6e7472616374000000604482015290519081900360640190fd5b60006060866001600160a01b031685876040518082805190602001908083835b60208310612b555780518252601f199092019160209182019101612b36565b6001836020036101000a03801982511681845116808217855250505050505090500191505060006040518083038185875af1925050503d8060008114612bb7576040519150601f19603f3d011682016040523d82523d6000602084013e612bbc565b606091505b5091509150612bcc828286612bdd565b979650505050505050565b3b151590565b60608315612bec575081611164565b825115612bfc5782518084602001fd5b8160405162461bcd60e51b81526004018080602001828103825283818151815260200191508051906020019080838360005b83811015612c46578181015183820152602001612c2e565b50505050905090810190601f168015612c735780820380516001836020036101000a031916815260200191505b509250505060405180910390fdfe53616665436173743a2076616c756520646f65736e27742066697420696e20393620626974736e6f7420616c6c6f77656420746f20736574746c652061756374696f6e2061746f6d6963616c6c7970726563616c63756c61746553656c6c416d6f756e7453756d20697320616c726561647920746f6f20616476616e6365644f6e6c792074686520757365722063616e2063616e63656c20686973206f7264657273746f6b656e732063616e6e6f742062652061756374696f6e656420666f7220667265656e6f206c6f6e67657220696e206f7264657220706c6163656d656e7420616e642063616e63656c6174696f6e2070686173655f6d696e427579416d6f756e7473206d7573742062652067726561746572207468616e2030547279696e6720746f20676574206e657874206f66206c61737420656c656d656e7461756374696f6e20656e642064617465206d75737420626520696e20746865206675747572654f6e6c79206f6e65206f726465722063616e20626520706c616365642061746f6d6963616c6c79547279696e6720746f20676574206e657874206f66206e6f6e2d6578697374656e7420656c656d656e746d696e696d756d42696464696e67416d6f756e745065724f72646572206973206e6f7420616c6c6f77656420746f206265207a65726f536166654d6174683a206d756c7469706c69636174696f6e206f766572666c6f7753616665436173743a2076616c756520646f65736e27742066697420696e20363420626974736f6e6c7920616c6c6f77656420746f20636c61696d20666f722073616d65207573657241756374696f6e206e6f7420696e20736f6c7574696f6e207375626d697373696f6e20706861736575736572206973206e6f7420616c6c6f77656420746f20706c6163652073616d65206f726465722074776963656c696d6974207072696365206e6f7420626574746572207468616e206d696d696d616c206f6666657274696d6520706572696f647320617265206e6f7420636f6e6669677572656420636f72726563746c795361666545524332303a204552433230206f7065726174696f6e20646964206e6f7420737563636565646e6f206c6f6e67657220696e206f7264657220706c6163656d656e74207068617365a2646970667358221220d26ed9191fd0b4feb45acc564ff66e4be52d7c616498aab355034b70baa5534064736f6c634300060c0033",
  "linkReferences": {},
  "deployedLinkReferences": {}
}