{
  "_format": "hh-sol-artifact-1",
  "contractName": "FairSaleTemplate",
  "sourceName": "contracts/templates/FairSaleTemplate.sol",
  "abi": [
    {
      "inputs": [],
      "stateMutability": "nonpayable",
      "type": "constructor"
    },
    {
      "anonymous": false,
      "inputs": [
        {
          "indexed": false,
          "internalType": "address",
          "name": "tokenOut",
          "type": "address"
        },
        {
          "indexed": false,
          "internalType": "address",
          "name": "tokenIn",
          "type": "address"
        },
        {
          "indexed": false,
          "internalType": "uint256",
          "name": "duration",
          "type": "uint256"
        },
        {
          "indexed": false,
          "internalType": "uint256",
          "name": "tokenOutSupply",
          "type": "uint256"
        },
        {
          "indexed": false,
          "internalType": "uint96",
          "name": "minPrice",
          "type": "uint96"
        },
        {
          "indexed": false,
          "internalType": "uint96",
          "name": "minBuyAmount",
          "type": "uint96"
        },
        {
          "indexed": false,
          "internalType": "uint256",
          "name": "minRaise",
          "type": "uint256"
        }
      ],
      "name": "TemplateInitialized",
      "type": "event"
    },
    {
      "inputs": [],
      "name": "createSale",
      "outputs": [
        {
          "internalType": "address",
          "name": "newSale",
          "type": "address"
        }
      ],
      "stateMutability": "payable",
      "type": "function"
    },
    {
      "inputs": [
        {
          "internalType": "bytes",
          "name": "_data",
          "type": "bytes"
        }
      ],
      "name": "init",
      "outputs": [],
      "stateMutability": "nonpayable",
      "type": "function"
    },
    {
      "inputs": [],
      "name": "mesaFactory",
      "outputs": [
        {
          "internalType": "contract IMesaFactory",
          "name": "",
          "type": "address"
        }
      ],
      "stateMutability": "view",
      "type": "function"
    },
    {
      "inputs": [],
      "name": "saleLauncher",
      "outputs": [
        {
          "internalType": "contract ISaleLauncher",
          "name": "",
          "type": "address"
        }
      ],
      "stateMutability": "view",
      "type": "function"
    },
    {
      "inputs": [],
      "name": "saleTemplateId",
      "outputs": [
        {
          "internalType": "uint256",
          "name": "",
          "type": "uint256"
        }
      ],
      "stateMutability": "view",
      "type": "function"
    },
    {
      "inputs": [],
      "name": "templateName",
      "outputs": [
        {
          "internalType": "string",
          "name": "",
          "type": "string"
        }
      ],
      "stateMutability": "view",
      "type": "function"
    }
  ],
  "bytecode": "0x60806040526003805460ff1916905534801561001a57600080fd5b506107758061002a6000396000f3fe6080604052600436106100555760003560e01c80634ddf47d41461005a578063613bb30b146100d957806369708c691461010057806369f30fd114610131578063906652be146101bb578063c3a4de14146101c3575b600080fd5b34801561006657600080fd5b506100d76004803603602081101561007d57600080fd5b81019060208101813564010000000081111561009857600080fd5b8201836020820111156100aa57600080fd5b803590602001918460018302840111640100000000831117156100cc57600080fd5b5090925090506101d8565b005b3480156100e557600080fd5b506100ee610279565b60408051918252519081900360200190f35b34801561010c57600080fd5b5061011561027f565b604080516001600160a01b039092168252519081900360200190f35b34801561013d57600080fd5b5061014661028e565b6040805160208082528351818301528351919283929083019185019080838360005b83811015610180578181015183820152602001610168565b50505050905090810190601f1680156101ad5780820380516001836020036101000a031916815260200191505b509250505060405180910390f35b6101156102ba565b3480156101cf57600080fd5b50610115610455565b6000806000806000806000806000808b8b6101408110156101f857600080fd5b506001600160a01b03813581169b5060208201359a506040820135811699506060820135811698506080820135975060a082013596506001600160601b0360c08301358116965060e083013516945061010082013593506101209091013516905061026b8a8a8a8a8a8a8a8a8a8a610464565b505050505050505050505050565b60025481565b6000546001600160a01b031681565b6040518060400160405280601081526020016f4661697253616c6554656d706c61746560801b81525081565b60035460009061010090046001600160a01b03163314610321576040805162461bcd60e51b815260206004820152601b60248201527f4661697253616c6554656d706c6174653a20464f5242494444454e0000000000604482015290519081900360640190fd5b600054600280546004805460055460035460405163da550d8960e01b81529384018581526001600160a01b0393841660248601819052604486018490526101009283900485166064870181905260a060848801908152600680546001811615909602600019019095169990990460a48801819052959099169863da550d8998349897929691949392909160c490910190849080156104005780601f106103d557610100808354040283529160200191610400565b820191906000526020600020905b8154815290600101906020018083116103e357829003601f168201915b505096505050505050506020604051808303818588803b15801561042357600080fd5b505af1158015610437573d6000803e3d6000fd5b50505050506040513d602081101561044e57600080fd5b5051919050565b6001546001600160a01b031681565b60035460ff16156104a65760405162461bcd60e51b815260040180806020018281038252602481526020018061071c6024913960400191505060405180910390fd5b600080546001600160a01b0319166001600160a01b038c169081179091556040805163c45a015560e01b8152905163c45a015591600480820192602092909190829003018186803b1580156104fa57600080fd5b505afa15801561050e573d6000803e3d6000fd5b505050506040513d602081101561052457600080fd5b5051600180546001600160a01b039283166001600160a01b03199182161790915560028b905560038054848416610100908102610100600160a81b031990921691909117909155600480548c8516931683179055600588905560408051938b1660208581019190915284820193909352606460608501819052608085018b90526001600160601b03808b1660a0870152881660c086015260e0850181905291840186905260006101208086018290528251808703909101815261014090950190915283519193849391926105fc926006920190610688565b506003805460ff19166001179055604080516001600160a01b03808e1682528c1660208201528082018b9052606081018a90526001600160601b03808a166080830152881660a082015260c0810187905290517ff243c2358fe9c4fb273fbfd3caa64e7f6b8c49b8100281f1a904bc13f475161f9181900360e00190a150505050505050505050505050565b828054600181600116156101000203166002900490600052602060002090601f016020900481019282601f106106c957805160ff19168380011785556106f6565b828001600101855582156106f6579182015b828111156106f65782518255916020019190600101906106db565b50610702929150610706565b5090565b5b80821115610702576000815560010161070756fe4661697253616c6554656d706c6174653a20414c454144595f494e495449414c495a4544a264697066735822122089bfb364b252c7967507408ec61d4bf94b46c303d478966554e1b07c8867cd4d64736f6c634300060c0033",
  "linkReferences": {},
  "deployedLinkReferences": {}
}