{
  "_format": "hh-sol-artifact-1",
  "contractName": "FairSale",
  "sourceName": "contracts/sales/FairSale.sol",
  "abi": [
    {
      "inputs": [],
      "stateMutability": "nonpayable",
      "type": "constructor"
    },
    {
      "anonymous": false,
      "inputs": [
        {
          "indexed": true,
          "internalType": "uint64",
          "name": "ownerId",
          "type": "uint64"
        },
        {
          "indexed": false,
          "internalType": "uint96",
          "name": "orderTokenOut",
          "type": "uint96"
        },
        {
          "indexed": false,
          "internalType": "uint96",
          "name": "orderTokenIn",
          "type": "uint96"
        }
      ],
      "name": "CancellationOrder",
      "type": "event"
    },
    {
      "anonymous": false,
      "inputs": [
        {
          "indexed": true,
          "internalType": "uint64",
          "name": "ownerId",
          "type": "uint64"
        },
        {
          "indexed": false,
          "internalType": "uint96",
          "name": "orderTokenOut",
          "type": "uint96"
        },
        {
          "indexed": false,
          "internalType": "uint96",
          "name": "orderTokenIn",
          "type": "uint96"
        }
      ],
      "name": "ClaimedFromOrder",
      "type": "event"
    },
    {
      "anonymous": false,
      "inputs": [
        {
          "indexed": true,
          "internalType": "contract IERC20",
          "name": "_tokenIn",
          "type": "address"
        },
        {
          "indexed": true,
          "internalType": "contract IERC20",
          "name": "_tokenOut",
          "type": "address"
        },
        {
          "indexed": false,
          "internalType": "uint256",
          "name": "orderCancellationEndDate",
          "type": "uint256"
        },
        {
          "indexed": false,
          "internalType": "uint256",
          "name": "endDate",
          "type": "uint256"
        },
        {
          "indexed": false,
          "internalType": "uint96",
          "name": "_totalTokenOutAmount",
          "type": "uint96"
        },
        {
          "indexed": false,
          "internalType": "uint96",
          "name": "_minBidAmountToReceive",
          "type": "uint96"
        },
        {
          "indexed": false,
          "internalType": "uint256",
          "name": "minimumBiddingAmountPerOrder",
          "type": "uint256"
        },
        {
          "indexed": false,
          "internalType": "uint256",
          "name": "minSellThreshold",
          "type": "uint256"
        }
      ],
      "name": "InitializedSale",
      "type": "event"
    },
    {
      "anonymous": false,
      "inputs": [
        {
          "indexed": true,
          "internalType": "uint64",
          "name": "ownerId",
          "type": "uint64"
        },
        {
          "indexed": false,
          "internalType": "uint96",
          "name": "orderTokenOut",
          "type": "uint96"
        },
        {
          "indexed": false,
          "internalType": "uint96",
          "name": "orderTokenIn",
          "type": "uint96"
        }
      ],
      "name": "NewOrder",
      "type": "event"
    },
    {
      "anonymous": false,
      "inputs": [
        {
          "indexed": true,
          "internalType": "uint64",
          "name": "ownerId",
          "type": "uint64"
        },
        {
          "indexed": true,
          "internalType": "address",
          "name": "userAddress",
          "type": "address"
        }
      ],
      "name": "NewUser",
      "type": "event"
    },
    {
      "anonymous": false,
      "inputs": [
        {
          "indexed": false,
          "internalType": "uint96",
          "name": "auctionedTokens",
          "type": "uint96"
        },
        {
          "indexed": false,
          "internalType": "uint96",
          "name": "soldBiddingTokens",
          "type": "uint96"
        },
        {
          "indexed": false,
          "internalType": "bytes32",
          "name": "clearingOrder",
          "type": "bytes32"
        }
      ],
      "name": "SaleCleared",
      "type": "event"
    },
    {
      "anonymous": false,
      "inputs": [
        {
          "indexed": true,
          "internalType": "address",
          "name": "user",
          "type": "address"
        },
        {
          "indexed": false,
          "internalType": "uint64",
          "name": "ownerId",
          "type": "uint64"
        }
      ],
      "name": "UserRegistration",
      "type": "event"
    },
    {
      "inputs": [],
      "name": "FEE_DENOMINATOR",
      "outputs": [
        {
          "internalType": "uint256",
          "name": "",
          "type": "uint256"
        }
      ],
      "stateMutability": "view",
      "type": "function"
    },
    {
      "inputs": [],
      "name": "auctionStartedDate",
      "outputs": [
        {
          "internalType": "uint256",
          "name": "",
          "type": "uint256"
        }
      ],
      "stateMutability": "view",
      "type": "function"
    },
    {
      "inputs": [
        {
          "internalType": "bytes32[]",
          "name": "_orders",
          "type": "bytes32[]"
        }
      ],
      "name": "cancelOrders",
      "outputs": [],
      "stateMutability": "nonpayable",
      "type": "function"
    },
    {
      "inputs": [
        {
          "internalType": "bytes32[]",
          "name": "_orders",
          "type": "bytes32[]"
        }
      ],
      "name": "claimFromParticipantOrder",
      "outputs": [
        {
          "internalType": "uint256",
          "name": "sumTokenOutAmount",
          "type": "uint256"
        },
        {
          "internalType": "uint256",
          "name": "sumTokenInAmount",
          "type": "uint256"
        }
      ],
      "stateMutability": "nonpayable",
      "type": "function"
    },
    {
      "inputs": [],
      "name": "clearingPriceOrder",
      "outputs": [
        {
          "internalType": "bytes32",
          "name": "",
          "type": "bytes32"
        }
      ],
      "stateMutability": "view",
      "type": "function"
    },
    {
      "inputs": [
        {
          "internalType": "bytes32",
          "name": "_order",
          "type": "bytes32"
        }
      ],
      "name": "containsOrder",
      "outputs": [
        {
          "internalType": "bool",
          "name": "",
          "type": "bool"
        }
      ],
      "stateMutability": "view",
      "type": "function"
    },
    {
      "inputs": [],
      "name": "endDate",
      "outputs": [
        {
          "internalType": "uint256",
          "name": "",
          "type": "uint256"
        }
      ],
      "stateMutability": "view",
      "type": "function"
    },
    {
      "inputs": [],
      "name": "feeNumerator",
      "outputs": [
        {
          "internalType": "uint256",
          "name": "",
          "type": "uint256"
        }
      ],
      "stateMutability": "view",
      "type": "function"
    },
    {
      "inputs": [],
      "name": "feeReceiverUserId",
      "outputs": [
        {
          "internalType": "uint64",
          "name": "",
          "type": "uint64"
        }
      ],
      "stateMutability": "view",
      "type": "function"
    },
    {
      "inputs": [],
      "name": "getSecondsRemainingInBatch",
      "outputs": [
        {
          "internalType": "uint256",
          "name": "",
          "type": "uint256"
        }
      ],
      "stateMutability": "view",
      "type": "function"
    },
    {
      "inputs": [
        {
          "internalType": "address",
          "name": "user",
          "type": "address"
        }
      ],
      "name": "getUserId",
      "outputs": [
        {
          "internalType": "uint64",
          "name": "ownerId",
          "type": "uint64"
        }
      ],
      "stateMutability": "nonpayable",
      "type": "function"
    },
    {
      "inputs": [
        {
          "internalType": "bytes",
          "name": "_data",
          "type": "bytes"
        }
      ],
      "name": "init",
      "outputs": [],
      "stateMutability": "nonpayable",
      "type": "function"
    },
    {
      "inputs": [],
      "name": "initialAuctionOrder",
      "outputs": [
        {
          "internalType": "bytes32",
          "name": "",
          "type": "bytes32"
        }
      ],
      "stateMutability": "view",
      "type": "function"
    },
    {
      "inputs": [],
      "name": "interimOrder",
      "outputs": [
        {
          "internalType": "bytes32",
          "name": "",
          "type": "bytes32"
        }
      ],
      "stateMutability": "view",
      "type": "function"
    },
    {
      "inputs": [],
      "name": "interimSumBidAmount",
      "outputs": [
        {
          "internalType": "uint256",
          "name": "",
          "type": "uint256"
        }
      ],
      "stateMutability": "view",
      "type": "function"
    },
    {
      "inputs": [],
      "name": "isAtomicClosureAllowed",
      "outputs": [
        {
          "internalType": "bool",
          "name": "",
          "type": "bool"
        }
      ],
      "stateMutability": "view",
      "type": "function"
    },
    {
      "inputs": [],
      "name": "minSellThreshold",
      "outputs": [
        {
          "internalType": "uint256",
          "name": "",
          "type": "uint256"
        }
      ],
      "stateMutability": "view",
      "type": "function"
    },
    {
      "inputs": [],
      "name": "minSellThresholdNotReached",
      "outputs": [
        {
          "internalType": "bool",
          "name": "",
          "type": "bool"
        }
      ],
      "stateMutability": "view",
      "type": "function"
    },
    {
      "inputs": [],
      "name": "minimumBiddingAmountPerOrder",
      "outputs": [
        {
          "internalType": "uint256",
          "name": "",
          "type": "uint256"
        }
      ],
      "stateMutability": "view",
      "type": "function"
    },
    {
      "inputs": [],
      "name": "numUsers",
      "outputs": [
        {
          "internalType": "uint64",
          "name": "",
          "type": "uint64"
        }
      ],
      "stateMutability": "view",
      "type": "function"
    },
    {
      "inputs": [],
      "name": "orderCancellationEndDate",
      "outputs": [
        {
          "internalType": "uint256",
          "name": "",
          "type": "uint256"
        }
      ],
      "stateMutability": "view",
      "type": "function"
    },
    {
      "inputs": [
        {
          "internalType": "uint96[]",
          "name": "_ordersTokenOut",
          "type": "uint96[]"
        },
        {
          "internalType": "uint96[]",
          "name": "_ordersTokenIn",
          "type": "uint96[]"
        },
        {
          "internalType": "bytes32[]",
          "name": "_prevOrders",
          "type": "bytes32[]"
        }
      ],
      "name": "placeOrders",
      "outputs": [
        {
          "internalType": "uint64",
          "name": "ownerId",
          "type": "uint64"
        }
      ],
      "stateMutability": "nonpayable",
      "type": "function"
    },
    {
      "inputs": [
        {
          "internalType": "uint256",
          "name": "iterationSteps",
          "type": "uint256"
        }
      ],
      "name": "precalculateSellAmountSum",
      "outputs": [],
      "stateMutability": "nonpayable",
      "type": "function"
    },
    {
      "inputs": [
        {
          "internalType": "address",
          "name": "user",
          "type": "address"
        }
      ],
      "name": "registerUser",
      "outputs": [
        {
          "internalType": "uint64",
          "name": "ownerId",
          "type": "uint64"
        }
      ],
      "stateMutability": "nonpayable",
      "type": "function"
    },
    {
      "inputs": [],
      "name": "settleAuction",
      "outputs": [
        {
          "internalType": "bytes32",
          "name": "clearingOrder",
          "type": "bytes32"
        }
      ],
      "stateMutability": "nonpayable",
      "type": "function"
    },
    {
      "inputs": [
        {
          "internalType": "uint96[]",
          "name": "_ordersTokenOut",
          "type": "uint96[]"
        },
        {
          "internalType": "uint96[]",
          "name": "_ordersTokenIn",
          "type": "uint96[]"
        },
        {
          "internalType": "bytes32[]",
          "name": "_prevOrder",
          "type": "bytes32[]"
        }
      ],
      "name": "settleAuctionAtomically",
      "outputs": [],
      "stateMutability": "nonpayable",
      "type": "function"
    },
    {
      "inputs": [],
      "name": "templateName",
      "outputs": [
        {
          "internalType": "string",
          "name": "",
          "type": "string"
        }
      ],
      "stateMutability": "view",
      "type": "function"
    },
    {
      "inputs": [],
      "name": "tokenIn",
      "outputs": [
        {
          "internalType": "contract IERC20",
          "name": "",
          "type": "address"
        }
      ],
      "stateMutability": "view",
      "type": "function"
    },
    {
      "inputs": [],
      "name": "tokenOut",
      "outputs": [
        {
          "internalType": "contract IERC20",
          "name": "",
          "type": "address"
        }
      ],
      "stateMutability": "view",
      "type": "function"
    },
    {
      "inputs": [],
      "name": "volumeClearingPriceOrder",
      "outputs": [
        {
          "internalType": "uint96",
          "name": "",
          "type": "uint96"
        }
      ],
      "stateMutability": "view",
      "type": "function"
    }
  ],
  "bytecode": "0x608060405260118054600160401b600160801b0319166801000000000000000017905534801561002e57600080fd5b50612d828061003e6000396000f3fe608060405234801561001057600080fd5b50600436106101da5760003560e01c80636daf390b11610104578063c24a0f8b116100a2578063de5f252e11610071578063de5f252e1461059b578063e6470ba314610740578063e86dea4a146108e5578063f1e2fc4f146108ed576101da565b8063c24a0f8b1461057b578063d0202d3b14610583578063d4dda12f1461058b578063d73792a914610593576101da565b8063a4d0a17e116100de578063a4d0a17e14610546578063a90c8c8d1461054e578063b4a41c731461056b578063b90545ee14610573576101da565b80636daf390b14610512578063757a1d281461053657806392f987be1461053e576101da565b80632b956ff71161017c57806352b2cf4f1161014b57806352b2cf4f146103cb5780635cefb291146104855780635f2aee411461048d57806369f30fd114610495576101da565b80632b956ff714610312578063422e6fa014610338578063459b72d5146103555780634ddf47d41461035d576101da565b806319a50f49116101b857806319a50f491461021d5780632199d5cd1461024157806321c77c9614610267578063257d33ff1461030a576101da565b806308da7b68146101df5780631426bdd4146101fb57806317569c1d14610215575b600080fd5b6101e7610911565b604080519115158252519081900360200190f35b610203610921565b60408051918252519081900360200190f35b610203610927565b61022561094d565b604080516001600160401b039092168252519081900360200190f35b6102256004803603602081101561025757600080fd5b50356001600160a01b031661095c565b6103086004803603602081101561027d57600080fd5b810190602081018135600160201b81111561029757600080fd5b8201836020820111156102a957600080fd5b803590602001918460208302840111600160201b831117156102ca57600080fd5b919080806020026020016040519081016040528093929190818152602001838360200280828437600092019190915250929550610a51945050505050565b005b610203610be3565b6102256004803603602081101561032857600080fd5b50356001600160a01b0316610be9565b6101e76004803603602081101561034e57600080fd5b5035610c5e565b6101e7610c71565b6103086004803603602081101561037357600080fd5b810190602081018135600160201b81111561038d57600080fd5b82018360208201111561039f57600080fd5b803590602001918460018302840111600160201b831117156103c057600080fd5b509092509050610c81565b61046c600480360360208110156103e157600080fd5b810190602081018135600160201b8111156103fb57600080fd5b82018360208201111561040d57600080fd5b803590602001918460208302840111600160201b8311171561042e57600080fd5b919080806020026020016040519081016040528093929190818152602001838360200280828437600092019190915250929550610d13945050505050565b6040805192835260208301919091528051918290030190f35b610225611026565b61020361103c565b61049d611042565b6040805160208082528351818301528351919283929083019185019080838360005b838110156104d75781810151838201526020016104bf565b50505050905090810190601f1680156105045780820380516001836020036101000a031916815260200191505b509250505060405180910390f35b61051a611066565b604080516001600160a01b039092168252519081900360200190f35b610203611075565b61020361107b565b610203611081565b6103086004803603602081101561056457600080fd5b5035611349565b610203611500565b610203611506565b61020361150c565b61051a611512565b610203611521565b610203611527565b610308600480360360608110156105b157600080fd5b810190602081018135600160201b8111156105cb57600080fd5b8201836020820111156105dd57600080fd5b803590602001918460208302840111600160201b831117156105fe57600080fd5b9190808060200260200160405190810160405280939291908181526020018383602002808284376000920191909152509295949360208101935035915050600160201b81111561064d57600080fd5b82018360208201111561065f57600080fd5b803590602001918460208302840111600160201b8311171561068057600080fd5b9190808060200260200160405190810160405280939291908181526020018383602002808284376000920191909152509295949360208101935035915050600160201b8111156106cf57600080fd5b8201836020820111156106e157600080fd5b803590602001918460208302840111600160201b8311171561070257600080fd5b91908080602002602001604051908101604052809392919081815260200183836020028082843760009201919091525092955061152d945050505050565b6102256004803603606081101561075657600080fd5b810190602081018135600160201b81111561077057600080fd5b82018360208201111561078257600080fd5b803590602001918460208302840111600160201b831117156107a357600080fd5b9190808060200260200160405190810160405280939291908181526020018383602002808284376000920191909152509295949360208101935035915050600160201b8111156107f257600080fd5b82018360208201111561080457600080fd5b803590602001918460208302840111600160201b8311171561082557600080fd5b9190808060200260200160405190810160405280939291908181526020018383602002808284376000920191909152509295949360208101935035915050600160201b81111561087457600080fd5b82018360208201111561088657600080fd5b803590602001918460208302840111600160201b831117156108a757600080fd5b9190808060200260200160405190810160405280939291908181526020018383602002808284376000920191909152509295506116b3945050505050565b61020361170a565b6108f5611710565b604080516001600160601b039092168252519081900360200190f35b600a54600160601b900460ff1681565b600c5481565b6000426004541161093a5750600061094a565b600454610947904261171f565b90505b90565b6011546001600160401b031681565b60115460009061097f9061097a906001600160401b0316600161177c565b6117d6565b6011805467ffffffffffffffff19166001600160401b0392831617908190556109ac91600f91168461181e565b6109fd576040805162461bcd60e51b815260206004820152601760248201527f5573657220616c72656164792072656769737465726564000000000000000000604482015290519081900360640190fd5b50601154604080516001600160401b03909216808352905190916001600160a01b038416917f6838f67cb358c332087b73dbe769a6c869a5f87225236c16dda5d0013a77074c9181900360200190a2919050565b6002544210610a915760405162461bcd60e51b8152600401808060200182810382526032815260200180612b186032913960400191505060405180910390fd5b6000610a9c33610be9565b90506000805b8351811015610bc6576000610ad4858381518110610abc57fe5b6020026020010151600d61199690919063ffffffff16565b90508015610bbd576000806000610afd888681518110610af057fe5b60200260200101516119eb565b925092509250866001600160401b0316836001600160401b031614610b535760405162461bcd60e51b8152600401808060200182810382526023815260200180612ad26023913960400191505060405180910390fd5b610b66866001600160601b03831661177c565b604080516001600160601b0380861682528416602082015281519298506001600160401b038a16927fa191df51d6448f39a95184fa8c95dd9f6463fa9ea030811f3ec8d30e4f530d72929181900390910190a25050505b50600101610aa2565b50600054610bde906001600160a01b031633836119fa565b505050565b60085481565b6000610bf6600f83611a4c565b15610c0d57610c06600f83611a76565b9050610c59565b610c168261095c565b9050816001600160a01b0316816001600160401b03167f969d438b19b6b5fb3c0d3c6f16867e519fcec4233799d6be29d1c00f2045ba2660405160405180910390a35b919050565b6000610c6b600d83611b00565b92915050565b600a54600160681b900460ff1681565b60008060008060008060008060008a8a610120811015610ca057600080fd5b506001600160a01b03813581169a50602082013516985060408101359750606081013596506001600160601b0360808201358116965060a082013516945060c0810135935060e08101359250610100013515159050610d06898989898989898989611b29565b5050505050505050505050565b6009546000908190610d6c576040805162461bcd60e51b815260206004820152601860248201527f41756374696f6e206e6f74207965742066696e69736865640000000000000000604482015290519081900360640190fd5b60005b8351811015610df857610d9f848281518110610d8757fe5b6020026020010151600d611d7b90919063ffffffff16565b610df0576040805162461bcd60e51b815260206004820152601c60248201527f6f72646572206973206e6f206c6f6e67657220636c61696d61626c6500000000604482015290519081900360640190fd5b600101610d6f565b50600080610e076009546119eb565b92509250506000610e1e86600081518110610af057fe5b5050905060005b8651811015611012576000806000610e428a8581518110610af057fe5b925092509250846001600160401b0316836001600160401b031614610e985760405162461bcd60e51b8152600401808060200182810382526023815260200180612c606023913960400191505060405180910390fd5b600a54600160601b900460ff1615610ec457610ebd886001600160601b03831661177c565b9750610fba565b6009548a8581518110610ed357fe5b60200260200101511415610f3b57600a54610f1490610f0d906001600160601b03808a1691610f0791908116908c16611da7565b90611e00565b8a9061177c565b600a54909950610ebd90610f34906001600160601b03848116911661171f565b899061177c565b610f636009548b8681518110610f4d57fe5b6020026020010151611e6790919063ffffffff16565b15610fa457610f9d610f0d876001600160601b0316610f078a6001600160601b0316856001600160601b0316611da790919063ffffffff16565b9850610fba565b610fb7886001600160601b03831661177c565b97505b604080516001600160601b0380851682528316602082015281516001600160401b038816927ff75ff0412dab9132bc6907f911ff4b016eef8911771400efa692b1868162700f928290030190a2505050600101610e25565b5061101e858583611f9c565b505050915091565b601154600160401b90046001600160401b031681565b60095481565b604051806040016040528060088152602001674661697253616c6560c01b81525081565b6000546001600160a01b031681565b60065481565b60055481565b6004546000904281118015906110975750600954155b6110d25760405162461bcd60e51b8152600401808060200182810382526028815260200180612c836028913960400191505060405180910390fd5b5060008060006110e36005546119eb565b60075460085493965091945092509080600080865b611103600d85611feb565b93506002600160601b031984141561111a57611167565b839450611126856119eb565b6001600160601b0391821695501692506111429050868361177c565b95506111576001600160601b03891683611da7565b6111618785611da7565b106110f8575b60008611801561119257506111856001600160601b03891683611da7565b61118f8785611da7565b10155b1561123d5760006111ba6111b385610f076001600160601b038d1687611da7565b889061171f565b90508083106112145760006111cf848361171f565b90506111da8161207f565b600a80546bffffffffffffffffffffffff19166001600160601b0392909216919091179055611209888361171f565b9750869b5050611237565b61121e878461171f565b965061123460008a61122f8a61207f565b6120c3565b9a505b506112a6565b866001600160601b03168611156112645761125d60008961122f8961207f565b99506112a6565b611270600089896120c3565b99506112a361129e886001600160601b0316610f078b6001600160601b03168a611da790919063ffffffff16565b61207f565b90505b60098a9055600c548610156112c957600a805460ff60601b1916600160601b1790555b6112dd816001600160601b03168a8a6120fb565b604080516001600160601b038084168252881660208201528082018c905290517fc048a8fe4ec243afbbe9adbc74b4e9b9516c12bb0369fd0578d2927a961351609181900360600190a15050600060058190556008819055600781905560065550959695505050505050565b60045442811180159061135c5750600954155b6113975760405162461bcd60e51b8152600401808060200182810382526028815260200180612c836028913960400191505060405180910390fd5b5060006113a56005546119eb565b50600754600854919350915060005b848110156113f8576113c7600d83611feb565b915060006113d4836119eb565b92506113ed91508590506001600160601b03831661177c565b9350506001016113b4565b506002600160601b0319811415611456576040805162461bcd60e51b815260206004820152601960248201527f7265616368656420656e64206f66206f72646572206c69737400000000000000604482015290519081900360640190fd5b600080611462836119eb565b925092505061148c816001600160601b0316866001600160601b0316611da790919063ffffffff16565b61149f856001600160601b038516611da7565b106114f1576040805162461bcd60e51b815260206004820152601960248201527f746f6f206d616e79206f72646572732073756d6d656420757000000000000000604482015290519081900360640190fd5b50506007919091556008555050565b60035481565b60025481565b60045481565b6001546001600160a01b031681565b60075481565b6103e881565b6004544281118015906115405750600954155b61157b5760405162461bcd60e51b8152600401808060200182810382526028815260200180612c836028913960400191505060405180910390fd5b50600a54600160681b900460ff166115c45760405162461bcd60e51b8152600401808060200182810382526028815260200180612a796028913960400191505060405180910390fd5b825160011480156115d6575081516001145b6116115760405162461bcd60e51b8152600401808060200182810382526027815260200180612b926027913960400191505060405180910390fd5b600061161c33610be9565b905061165d611654828660008151811061163257fe5b60200260200101518660008151811061164757fe5b60200260200101516120c3565b60085490611e67565b6116985760405162461bcd60e51b8152600401808060200182810382526031815260200180612aa16031913960400191505060405180910390fd5b6116a3848484612222565b506116ac611081565b5050505050565b600060045442106116f55760405162461bcd60e51b8152600401808060200182810382526022815260200180612d2b6022913960400191505060405180910390fd5b611700848484612222565b90505b9392505050565b600b5481565b600a546001600160601b031681565b600082821115611776576040805162461bcd60e51b815260206004820152601e60248201527f536166654d6174683a207375627472616374696f6e206f766572666c6f770000604482015290519081900360640190fd5b50900390565b600082820183811015611703576040805162461bcd60e51b815260206004820152601b60248201527f536166654d6174683a206164646974696f6e206f766572666c6f770000000000604482015290519081900360640190fd5b6000600160401b821061181a5760405162461bcd60e51b8152600401808060200182810382526026815260200180612c3a6026913960400191505060405180910390fd5b5090565b60006001600160a01b03821661187b576040805162461bcd60e51b815260206004820152601a60248201527f43616e6e6f7420696e73657274207a65726f2061646472657373000000000000604482015290519081900360640190fd5b6001600160401b0383811614156118d9576040805162461bcd60e51b815260206004820152601860248201527f43616e6e6f7420696e73657274206d61782075696e7436340000000000000000604482015290519081900360640190fd5b6001600160a01b03821660009081526001850160205260409020546001600160401b031615158061192d57506001600160401b0360018401166000908152602085905260409020546001600160a01b031615155b1561193a57506000611703565b5060019182016001600160401b031660008181526020858152604080832080546001600160a01b0319166001600160a01b039690961695861790559382529484019094529220805467ffffffffffffffff191690921790915590565b60006119a28383611b00565b6119ae57506000610c6b565b5060008181526001838101602081815260408085205487835281862080548288528388208190558752938352908520559383529390925290915590565b60c081901c91606082901c9190565b604080516001600160a01b038416602482015260448082018490528251808303909101815260649091019091526020810180516001600160e01b031663a9059cbb60e01b179052610bde908490612495565b6001600160a01b0316600090815260019190910160205260409020546001600160401b0316151590565b6000611a828383611a4c565b611ad3576040805162461bcd60e51b815260206004820152601b60248201527f4d7573742068617665204164647265737320746f206765742049440000000000604482015290519081900360640190fd5b506001600160a01b0316600090815260019190910160205260409020546001600160401b03166000190190565b60006001821415611b1357506000610c6b565b5060009081526020919091526040902054151590565b6000611b3433610be9565b9050611b7d3330611b6b6103e8610f07611b5b600b546103e861177c90919063ffffffff16565b6001600160601b038d1690611da7565b6001600160a01b038d16929190612546565b6000866001600160601b031611611bdb576040805162461bcd60e51b815260206004820152601a60248201527f63616e6e6f742061756374696f6e207a65726f20746f6b656e73000000000000604482015290519081900360640190fd5b6000856001600160601b031611611c235760405162461bcd60e51b8152600401808060200182810382526023815260200180612af56023913960400191505060405180910390fd5b60008411611c625760405162461bcd60e51b8152600401808060200182810382526036815260200180612be36036913960400191505060405180910390fd5b611c6c600d6125a0565b42878101600455600080546001600160a01b03808e166001600160a01b03199283161790925560018054928d16929091169190911790558089016002819055600391909155611cbc8288886120c3565b6005556006859055600060078190556001600855600955600a80546dffffffffffffffffffffffffffff1916600160681b85151502179055600c8490556002546004546040805192835260208301919091526001600160601b0389811683830152881660608301526080820187905260a08201869052516001600160a01b038c811692908e16917fddc5ab492ca60ec0fc927fd7bb5d5a9fec0278a1caf65c8ecf5dbb30d9c1b3379160c0908290030190a35050505050505050505050565b600080611d888484611996565b9050801561170357600092835260019390930160205250604081205590565b600082611db657506000610c6b565b82820282848281611dc357fe5b04146117035760405162461bcd60e51b8152600401808060200182810382526021815260200180612c196021913960400191505060405180910390fd5b6000808211611e56576040805162461bcd60e51b815260206004820152601a60248201527f536166654d6174683a206469766973696f6e206279207a65726f000000000000604482015290519081900360640190fd5b818381611e5f57fe5b049392505050565b600080600080611e76866119eb565b9250925092506000806000611e8a886119eb565b91945092509050611ea76001600160601b03808416908616611da7565b611ebd6001600160601b03878116908416611da7565b1015611ed25760019650505050505050610c6b565b611ee86001600160601b03838116908616611da7565b611efe6001600160601b03878116908416611da7565b1115611f135760009650505050505050610c6b565b826001600160401b0316866001600160401b03161415611f645760405162461bcd60e51b815260040180806020018281038252602d815260200180612cab602d913960400191505060405180910390fd5b826001600160401b0316866001600160401b03161015611f8d5760019650505050505050610c6b565b50600098975050505050505050565b6000611fa9600f836125cc565b90508315611fc857600154611fc8906001600160a01b031682866119fa565b8215611fe557600054611fe5906001600160a01b031682856119fa565b50505050565b60006002600160601b03198214156120345760405162461bcd60e51b8152600401808060200182810382526022815260200180612b4a6022913960400191505060405180910390fd5b600082815260208490526040902054806117035760405162461bcd60e51b815260040180806020018281038252602a815260200180612bb9602a913960400191505060405180910390fd5b6000600160601b821061181a5760405162461bcd60e51b8152600401808060200182810382526026815260200180612a536026913960400191505060405180910390fd5b6001600160c01b031960c084901b166bffffffffffffffffffffffff60601b606084901b16016001600160601b038216019392505050565b60006121216103e8610f07600b54856001600160601b0316611da790919063ffffffff16565b600a54909150600160601b900460ff16156121595761215461214c6001600160601b0384168361177c565b600085611f9c565b611fe5565b6000806121676009546119eb565b9093509150600090506121836001600160601b0386168861171f565b905060006121a86121a16001600160601b038816610f078886611da7565b839061177c565b905060006121d5856001600160601b0316610f07866001600160601b03168c611da790919063ffffffff16565b90506121e282828a611f9c565b6122176121fc6001600160601b038916610f07898d611da7565b601154600090600160401b90046001600160401b0316611f9c565b505050505050505050565b60008060006122326005546119eb565b9250925050600061224233610be9565b935060005b87518110156124725761228887828151811061225f57fe5b60200260200101516001600160601b0316856001600160601b0316611da790919063ffffffff16565b6122c0846001600160601b03168a84815181106122a157fe5b60200260200101516001600160601b0316611da790919063ffffffff16565b106122fc5760405162461bcd60e51b8152600401808060200182810382526029815260200180612cd86029913960400191505060405180910390fd5b60065487828151811061230b57fe5b60200260200101516001600160601b031611612360576040805162461bcd60e51b815260206004820152600f60248201526e1bdc99195c881d1bdbc81cdb585b1b608a1b604482015290519081900360640190fd5b60006123ae612389878b858151811061237557fe5b60200260200101518b868151811061164757fe5b88848151811061239557fe5b6020026020010151600d6126529092919063ffffffff16565b90508015612469576123e58883815181106123c557fe5b60200260200101516001600160601b03168461177c90919063ffffffff16565b9250856001600160401b03167f74df79be96152afe44c2a06a37046de4d335629601e2cf1b58c5346216a5d3d38a848151811061241e57fe5b60200260200101518a858151811061243257fe5b602002602001015160405180836001600160601b03168152602001826001600160601b031681526020019250505060405180910390a25b50600101612247565b5060005461248b906001600160a01b0316333084612546565b5050509392505050565b60606124ea826040518060400160405280602081526020017f5361666545524332303a206c6f772d6c6576656c2063616c6c206661696c6564815250856001600160a01b03166128139092919063ffffffff16565b805190915015610bde5780806020019051602081101561250957600080fd5b5051610bde5760405162461bcd60e51b815260040180806020018281038252602a815260200180612d01602a913960400191505060405180910390fd5b604080516001600160a01b0380861660248301528416604482015260648082018490528251808303909101815260849091019091526020810180516001600160e01b03166323b872dd60e01b179052611fe5908590612495565b60016000818152602083815260408083206002600160601b031990819055835293830190529190912055565b60006125d88383612822565b612629576040805162461bcd60e51b815260206004820152601b60248201527f4d757374206861766520494420746f2067657420416464726573730000000000604482015290519081900360640190fd5b506001016001600160401b0316600090815260209190915260409020546001600160a01b031690565b60008061265e846119eb565b925050506001600160601b0381166126bd576040805162461bcd60e51b815260206004820152601f60248201527f496e73657274696e67207a65726f206973206e6f7420737570706f7274656400604482015290519081900360640190fd5b600184148015906126d657506002600160601b03198414155b612727576040805162461bcd60e51b815260206004820152601e60248201527f496e73657274696e6720656c656d656e74206973206e6f742076616c69640000604482015290519081900360640190fd5b6127318585611b00565b15612740576000915050611703565b6001831480159061275f57506000838152600186016020526040902054155b1561276e576000915050611703565b6127788385611e67565b612786576000915050611703565b5b6000838152602086905260409020546127b25760009283526001850160205260409092205491612787565b6000835b6000818152602088905260409020549091506127d28187611e67565b6127b6576000828152602088815260408083208990558383526001808b0183528184208a905589845281842095909555908990529020559150509392505050565b6060611700848460008561284c565b6001016001600160401b0316600090815260209190915260409020546001600160a01b0316151590565b60608247101561288d5760405162461bcd60e51b8152600401808060200182810382526026815260200180612b6c6026913960400191505060405180910390fd5b612896856129a8565b6128e7576040805162461bcd60e51b815260206004820152601d60248201527f416464726573733a2063616c6c20746f206e6f6e2d636f6e7472616374000000604482015290519081900360640190fd5b60006060866001600160a01b031685876040518082805190602001908083835b602083106129265780518252601f199092019160209182019101612907565b6001836020036101000a03801982511681845116808217855250505050505090500191505060006040518083038185875af1925050503d8060008114612988576040519150601f19603f3d011682016040523d82523d6000602084013e61298d565b606091505b509150915061299d8282866129ae565b979650505050505050565b3b151590565b606083156129bd575081611703565b8251156129cd5782518084602001fd5b8160405162461bcd60e51b81526004018080602001828103825283818151815260200191508051906020019080838360005b83811015612a175781810151838201526020016129ff565b50505050905090810190601f168015612a445780820380516001836020036101000a031916815260200191505b509250505060405180910390fdfe53616665436173743a2076616c756520646f65736e27742066697420696e20393620626974736e6f7420616c6c6f77656420746f20736574746c652061756374696f6e2061746f6d6963616c6c7970726563616c63756c61746553656c6c416d6f756e7453756d20697320616c726561647920746f6f20616476616e6365644f6e6c792074686520757365722063616e2063616e63656c20686973206f7264657273746f6b656e732063616e6e6f742062652061756374696f6e656420666f7220667265656e6f206c6f6e67657220696e206f7264657220706c6163656d656e7420616e642063616e63656c6174696f6e207068617365547279696e6720746f20676574206e657874206f66206c61737420656c656d656e74416464726573733a20696e73756666696369656e742062616c616e636520666f722063616c6c4f6e6c79206f6e65206f726465722063616e20626520706c616365642061746f6d6963616c6c79547279696e6720746f20676574206e657874206f66206e6f6e2d6578697374656e7420656c656d656e746d696e696d756d42696464696e67416d6f756e745065724f72646572206973206e6f7420616c6c6f77656420746f206265207a65726f536166654d6174683a206d756c7469706c69636174696f6e206f766572666c6f7753616665436173743a2076616c756520646f65736e27742066697420696e20363420626974736f6e6c7920616c6c6f77656420746f20636c61696d20666f722073616d65207573657241756374696f6e206e6f7420696e20736f6c7574696f6e207375626d697373696f6e20706861736575736572206973206e6f7420616c6c6f77656420746f20706c6163652073616d65206f726465722074776963656c696d6974207072696365206e6f7420626574746572207468616e206d696d696d616c206f666665725361666545524332303a204552433230206f7065726174696f6e20646964206e6f7420737563636565646e6f206c6f6e67657220696e206f7264657220706c6163656d656e74207068617365a2646970667358221220c150b621e407e446cd29648a50902a8ffdc3aa8d16123c73c8baefcb8d8e518864736f6c634300060c0033",
  "linkReferences": {},
  "deployedLinkReferences": {}
}