{
  "_format": "hh-sol-artifact-1",
  "contractName": "FixedPriceSaleTemplate",
  "sourceName": "contracts/templates/FixedPriceSaleTemplate.sol",
  "abi": [
    {
      "inputs": [],
      "stateMutability": "nonpayable",
      "type": "constructor"
    },
    {
      "anonymous": false,
      "inputs": [
        {
          "indexed": false,
          "internalType": "address",
          "name": "tokenOut",
          "type": "address"
        },
        {
          "indexed": false,
          "internalType": "address",
          "name": "tokenIn",
          "type": "address"
        },
        {
          "indexed": false,
          "internalType": "uint256",
          "name": "tokenPrice",
          "type": "uint256"
        },
        {
          "indexed": false,
          "internalType": "uint256",
          "name": "tokensForSale",
          "type": "uint256"
        },
        {
          "indexed": false,
          "internalType": "uint256",
          "name": "startDate",
          "type": "uint256"
        },
        {
          "indexed": false,
          "internalType": "uint256",
          "name": "endDate",
          "type": "uint256"
        },
        {
          "indexed": false,
          "internalType": "uint256",
          "name": "allocationMin",
          "type": "uint256"
        },
        {
          "indexed": false,
          "internalType": "uint256",
          "name": "allocationMax",
          "type": "uint256"
        },
        {
          "indexed": false,
          "internalType": "uint256",
          "name": "minimumRaise",
          "type": "uint256"
        },
        {
          "indexed": false,
          "internalType": "address",
          "name": "owner",
          "type": "address"
        }
      ],
      "name": "TemplateInitialized",
      "type": "event"
    },
    {
      "inputs": [],
      "name": "createSale",
      "outputs": [
        {
          "internalType": "address",
          "name": "newSale",
          "type": "address"
        }
      ],
      "stateMutability": "payable",
      "type": "function"
    },
    {
      "inputs": [
        {
          "internalType": "bytes",
          "name": "_data",
          "type": "bytes"
        }
      ],
      "name": "init",
      "outputs": [],
      "stateMutability": "nonpayable",
      "type": "function"
    },
    {
      "inputs": [],
      "name": "mesaFactory",
      "outputs": [
        {
          "internalType": "contract IMesaFactory",
          "name": "",
          "type": "address"
        }
      ],
      "stateMutability": "view",
      "type": "function"
    },
    {
      "inputs": [],
      "name": "saleLauncher",
      "outputs": [
        {
          "internalType": "contract ISaleLauncher",
          "name": "",
          "type": "address"
        }
      ],
      "stateMutability": "view",
      "type": "function"
    },
    {
      "inputs": [],
      "name": "saleTemplateId",
      "outputs": [
        {
          "internalType": "uint256",
          "name": "",
          "type": "uint256"
        }
      ],
      "stateMutability": "view",
      "type": "function"
    },
    {
      "inputs": [],
      "name": "templateName",
      "outputs": [
        {
          "internalType": "string",
          "name": "",
          "type": "string"
        }
      ],
      "stateMutability": "view",
      "type": "function"
    }
  ],
  "bytecode": "0x60806040526003805460ff1916905534801561001a57600080fd5b506107af8061002a6000396000f3fe6080604052600436106100555760003560e01c80634ddf47d41461005a578063613bb30b146100d957806369708c691461010057806369f30fd114610131578063906652be146101bb578063c3a4de14146101c3575b600080fd5b34801561006657600080fd5b506100d76004803603602081101561007d57600080fd5b81019060208101813564010000000081111561009857600080fd5b8201836020820111156100aa57600080fd5b803590602001918460018302840111640100000000831117156100cc57600080fd5b5090925090506101d8565b005b3480156100e557600080fd5b506100ee610293565b60408051918252519081900360200190f35b34801561010c57600080fd5b50610115610299565b604080516001600160a01b039092168252519081900360200190f35b34801561013d57600080fd5b506101466102a8565b6040805160208082528351818301528351919283929083019185019080838360005b83811015610180578181015183820152602001610168565b50505050905090810190601f1680156101ad5780820380516001836020036101000a031916815260200191505b509250505060405180910390f35b6101156102da565b3480156101cf57600080fd5b5061011561045f565b60008060008060008060008060008060008060008e8e6101a08110156101fd57600080fd5b506001600160a01b03813581169e5060208201359d50604082013581169c50606082013581169b50608082013581169a5060a0820135995060c0820135985060e082013597506101008201359650610120820135955061014082013594506101608201359350610180909101351690506102828d8d8d8d8d8d8d8d8d8d8d8d8d61046e565b505050505050505050505050505050565b60025481565b6000546001600160a01b031681565b604051806040016040528060168152602001754669786564507269636553616c6554656d706c61746560501b81525081565b60035460009061010090046001600160a01b0316331461032b5760405162461bcd60e51b81526004018080602001828103825260218152602001806107596021913960400191505060405180910390fd5b600054600280546004805460055460035460405163da550d8960e01b81529384018581526001600160a01b0393841660248601819052604486018490526101009283900485166064870181905260a060848801908152600680546001811615909602600019019095169990990460a48801819052959099169863da550d8998349897929691949392909160c4909101908490801561040a5780601f106103df5761010080835404028352916020019161040a565b820191906000526020600020905b8154815290600101906020018083116103ed57829003601f168201915b505096505050505050506020604051808303818588803b15801561042d57600080fd5b505af1158015610441573d6000803e3d6000fd5b50505050506040513d602081101561045857600080fd5b5051919050565b6001546001600160a01b031681565b60035460ff16156104b05760405162461bcd60e51b815260040180806020018281038252602a81526020018061072f602a913960400191505060405180910390fd5b600080546001600160a01b0319166001600160a01b038f169081179091556040805163c45a015560e01b8152905163c45a015591600480820192602092909190829003018186803b15801561050457600080fd5b505afa158015610518573d6000803e3d6000fd5b505050506040513d602081101561052e57600080fd5b5051600180546001600160a01b039283166001600160a01b03199182161790915560028e90556005899055600480548d8416921682179055600380548e8416610100908102610100600160a81b031990921691909117909155604080518d851660208281019190915281830194909452606081018d9052608081018c905260a081018b905260c081018a905260e081018990529182018790526101208201869052928416610140808301919091528351808303909101815261016090910190925281516105ff92600692019061069b565b506003805460ff19166001179055604080516001600160a01b03808d168252808c1660208301528183018b9052606082018a90526080820189905260a0820188905260c0820187905260e082018690526101008201859052831661012082015290517f81923e6cef3d1606dbf65d622592ed406d094218006685eb44ee9c8f614d78e1918190036101400190a150505050505050505050505050565b828054600181600116156101000203166002900490600052602060002090601f016020900481019282601f106106dc57805160ff1916838001178555610709565b82800160010185558215610709579182015b828111156107095782518255916020019190600101906106ee565b50610715929150610719565b5090565b5b80821115610715576000815560010161071a56fe4669786564507269636553616c6554656d706c6174653a20414c454144595f494e495449414c495a45444669786564507269636553616c6554656d706c6174653a20464f5242494444454ea2646970667358221220538d07d1e21279e009048dae7b35a075534d94c635e3c1bb7cc6022495b6c08564736f6c634300060c0033",
  "linkReferences": {},
  "deployedLinkReferences": {}
}