{
  "_format": "hh-sol-artifact-1",
  "contractName": "FixedPriceSale",
  "sourceName": "contracts/sales/FixedPriceSale.sol",
  "abi": [
    {
      "inputs": [],
      "stateMutability": "nonpayable",
      "type": "constructor"
    },
    {
      "anonymous": false,
      "inputs": [
        {
          "indexed": true,
          "internalType": "address",
          "name": "buyer",
          "type": "address"
        },
        {
          "indexed": true,
          "internalType": "uint256",
          "name": "amount",
          "type": "uint256"
        }
      ],
      "name": "NewPurchase",
      "type": "event"
    },
    {
      "anonymous": false,
      "inputs": [
        {
          "indexed": true,
          "internalType": "address",
          "name": "buyer",
          "type": "address"
        },
        {
          "indexed": true,
          "internalType": "uint256",
          "name": "amount",
          "type": "uint256"
        }
      ],
      "name": "NewTokenClaim",
      "type": "event"
    },
    {
      "anonymous": false,
      "inputs": [
        {
          "indexed": true,
          "internalType": "address",
          "name": "buyer",
          "type": "address"
        },
        {
          "indexed": true,
          "internalType": "uint256",
          "name": "amount",
          "type": "uint256"
        }
      ],
      "name": "NewTokenRelease",
      "type": "event"
    },
    {
      "anonymous": false,
      "inputs": [],
      "name": "SaleClosed",
      "type": "event"
    },
    {
      "anonymous": false,
      "inputs": [
        {
          "indexed": false,
          "internalType": "contract IERC20",
          "name": "tokenIn",
          "type": "address"
        },
        {
          "indexed": false,
          "internalType": "contract IERC20",
          "name": "tokenOut",
          "type": "address"
        },
        {
          "indexed": false,
          "internalType": "uint256",
          "name": "tokenPrice",
          "type": "uint256"
        },
        {
          "indexed": false,
          "internalType": "uint256",
          "name": "tokensForSale",
          "type": "uint256"
        },
        {
          "indexed": false,
          "internalType": "uint256",
          "name": "startDate",
          "type": "uint256"
        },
        {
          "indexed": false,
          "internalType": "uint256",
          "name": "endDate",
          "type": "uint256"
        },
        {
          "indexed": false,
          "internalType": "uint256",
          "name": "allocationMin",
          "type": "uint256"
        },
        {
          "indexed": false,
          "internalType": "uint256",
          "name": "allocationMax",
          "type": "uint256"
        },
        {
          "indexed": false,
          "internalType": "uint256",
          "name": "minimumRaise",
          "type": "uint256"
        }
      ],
      "name": "SaleInitalized",
      "type": "event"
    },
    {
      "anonymous": false,
      "inputs": [
        {
          "indexed": true,
          "internalType": "uint256",
          "name": "amount",
          "type": "uint256"
        }
      ],
      "name": "distributeAllTokensLeft",
      "type": "event"
    },
    {
      "inputs": [
        {
          "internalType": "address",
          "name": "token",
          "type": "address"
        },
        {
          "internalType": "uint256",
          "name": "amount",
          "type": "uint256"
        }
      ],
      "name": "ERC20Withdraw",
      "outputs": [],
      "stateMutability": "nonpayable",
      "type": "function"
    },
    {
      "inputs": [
        {
          "internalType": "uint256",
          "name": "amount",
          "type": "uint256"
        }
      ],
      "name": "ETHWithdraw",
      "outputs": [],
      "stateMutability": "nonpayable",
      "type": "function"
    },
    {
      "inputs": [],
      "name": "allocationMax",
      "outputs": [
        {
          "internalType": "uint256",
          "name": "",
          "type": "uint256"
        }
      ],
      "stateMutability": "view",
      "type": "function"
    },
    {
      "inputs": [],
      "name": "allocationMin",
      "outputs": [
        {
          "internalType": "uint256",
          "name": "",
          "type": "uint256"
        }
      ],
      "stateMutability": "view",
      "type": "function"
    },
    {
      "inputs": [
        {
          "internalType": "uint256",
          "name": "amount",
          "type": "uint256"
        }
      ],
      "name": "buyTokens",
      "outputs": [],
      "stateMutability": "nonpayable",
      "type": "function"
    },
    {
      "inputs": [],
      "name": "claimTokens",
      "outputs": [],
      "stateMutability": "nonpayable",
      "type": "function"
    },
    {
      "inputs": [],
      "name": "closeSale",
      "outputs": [],
      "stateMutability": "nonpayable",
      "type": "function"
    },
    {
      "inputs": [],
      "name": "distributeAllTokens",
      "outputs": [],
      "stateMutability": "nonpayable",
      "type": "function"
    },
    {
      "inputs": [],
      "name": "endDate",
      "outputs": [
        {
          "internalType": "uint256",
          "name": "",
          "type": "uint256"
        }
      ],
      "stateMutability": "view",
      "type": "function"
    },
    {
      "inputs": [
        {
          "internalType": "bytes",
          "name": "_data",
          "type": "bytes"
        }
      ],
      "name": "init",
      "outputs": [],
      "stateMutability": "nonpayable",
      "type": "function"
    },
    {
      "inputs": [],
      "name": "isClosed",
      "outputs": [
        {
          "internalType": "bool",
          "name": "",
          "type": "bool"
        }
      ],
      "stateMutability": "view",
      "type": "function"
    },
    {
      "inputs": [],
      "name": "minimumRaise",
      "outputs": [
        {
          "internalType": "uint256",
          "name": "",
          "type": "uint256"
        }
      ],
      "stateMutability": "view",
      "type": "function"
    },
    {
      "inputs": [
        {
          "internalType": "uint256",
          "name": "",
          "type": "uint256"
        }
      ],
      "name": "orderOwners",
      "outputs": [
        {
          "internalType": "address",
          "name": "",
          "type": "address"
        }
      ],
      "stateMutability": "view",
      "type": "function"
    },
    {
      "inputs": [],
      "name": "ordersCount",
      "outputs": [
        {
          "internalType": "uint256",
          "name": "",
          "type": "uint256"
        }
      ],
      "stateMutability": "view",
      "type": "function"
    },
    {
      "inputs": [],
      "name": "owner",
      "outputs": [
        {
          "internalType": "address",
          "name": "",
          "type": "address"
        }
      ],
      "stateMutability": "view",
      "type": "function"
    },
    {
      "inputs": [],
      "name": "releaseTokens",
      "outputs": [],
      "stateMutability": "nonpayable",
      "type": "function"
    },
    {
      "inputs": [],
      "name": "secondsRemainingInSale",
      "outputs": [
        {
          "internalType": "uint256",
          "name": "",
          "type": "uint256"
        }
      ],
      "stateMutability": "view",
      "type": "function"
    },
    {
      "inputs": [],
      "name": "startDate",
      "outputs": [
        {
          "internalType": "uint256",
          "name": "",
          "type": "uint256"
        }
      ],
      "stateMutability": "view",
      "type": "function"
    },
    {
      "inputs": [],
      "name": "templateName",
      "outputs": [
        {
          "internalType": "string",
          "name": "",
          "type": "string"
        }
      ],
      "stateMutability": "view",
      "type": "function"
    },
    {
      "inputs": [],
      "name": "tokenIn",
      "outputs": [
        {
          "internalType": "contract IERC20",
          "name": "",
          "type": "address"
        }
      ],
      "stateMutability": "view",
      "type": "function"
    },
    {
      "inputs": [],
      "name": "tokenOut",
      "outputs": [
        {
          "internalType": "contract IERC20",
          "name": "",
          "type": "address"
        }
      ],
      "stateMutability": "view",
      "type": "function"
    },
    {
      "inputs": [],
      "name": "tokenPrice",
      "outputs": [
        {
          "internalType": "uint256",
          "name": "",
          "type": "uint256"
        }
      ],
      "stateMutability": "view",
      "type": "function"
    },
    {
      "inputs": [],
      "name": "tokensForSale",
      "outputs": [
        {
          "internalType": "uint256",
          "name": "",
          "type": "uint256"
        }
      ],
      "stateMutability": "view",
      "type": "function"
    },
    {
      "inputs": [
        {
          "internalType": "address",
          "name": "",
          "type": "address"
        }
      ],
      "name": "tokensPurchased",
      "outputs": [
        {
          "internalType": "uint256",
          "name": "",
          "type": "uint256"
        }
      ],
      "stateMutability": "view",
      "type": "function"
    },
    {
      "inputs": [],
      "name": "tokensRemaining",
      "outputs": [
        {
          "internalType": "uint256",
          "name": "",
          "type": "uint256"
        }
      ],
      "stateMutability": "view",
      "type": "function"
    },
    {
      "inputs": [],
      "name": "tokensSold",
      "outputs": [
        {
          "internalType": "uint256",
          "name": "",
          "type": "uint256"
        }
      ],
      "stateMutability": "view",
      "type": "function"
    },
    {
      "inputs": [],
      "name": "withdrawFunds",
      "outputs": [],
      "stateMutability": "nonpayable",
      "type": "function"
    },
    {
      "inputs": [
        {
          "internalType": "bytes",
          "name": "_data",
          "type": "bytes"
        }
      ],
      "name": "withdrawFundsWithParams",
      "outputs": [],
      "stateMutability": "nonpayable",
      "type": "function"
    },
    {
      "inputs": [],
      "name": "withdrawUnsoldFunds",
      "outputs": [],
      "stateMutability": "nonpayable",
      "type": "function"
    },
    {
      "stateMutability": "payable",
      "type": "receive"
    }
  ],
  "bytecode": "0x608060405234801561001057600080fd5b50611dad806100206000396000f3fe6080604052600436106101c65760003560e01c80636daf390b116100f7578063c2b6b58c11610095578063d0202d3b11610064578063d0202d3b146105c5578063d530f4e7146105da578063d90cf26f14610613578063ee55efee14610628576101cd565b8063c2b6b58c14610548578063c58125bc14610571578063c8b081251461059b578063cfbc0825146105b0576101cd565b80638da5cb5b116100d15780638da5cb5b146104f45780638e75b13114610509578063a96f86681461051e578063c24a0f8b14610533576101cd565b80636daf390b146104b55780637ff9b596146104ca5780638c3d2c5d146104df576101cd565b806335daa7311161016457806348c54b9d1161013e57806348c54b9d146103845780634ddf47d414610399578063518ab2a81461041657806369f30fd11461042b576101cd565b806335daa731146103305780633610724e1461034557806337aeb3801461036f576101cd565b806320c53f94116101a057806320c53f941461028d57806324600fc3146102d35780632917f66b146102e85780632ad92740146102fd576101cd565b80630b97bc86146101d257806312aef8c3146101f95780631a4571f81461020e576101cd565b366101cd57005b600080fd5b3480156101de57600080fd5b506101e761063d565b60408051918252519081900360200190f35b34801561020557600080fd5b506101e7610643565b34801561021a57600080fd5b5061028b6004803603602081101561023157600080fd5b81019060208101813564010000000081111561024c57600080fd5b82018360208201111561025e57600080fd5b8035906020019184600183028401116401000000008311171561028057600080fd5b509092509050610649565b005b34801561029957600080fd5b506102b7600480360360208110156102b057600080fd5b50356106b4565b604080516001600160a01b039092168252519081900360200190f35b3480156102df57600080fd5b5061028b6106db565b3480156102f457600080fd5b5061028b610740565b34801561030957600080fd5b506101e76004803603602081101561032057600080fd5b50356001600160a01b031661087a565b34801561033c57600080fd5b506101e761088c565b34801561035157600080fd5b5061028b6004803603602081101561036857600080fd5b5035610893565b34801561037b57600080fd5b5061028b610ad6565b34801561039057600080fd5b5061028b610b5a565b3480156103a557600080fd5b5061028b600480360360208110156103bc57600080fd5b8101906020810181356401000000008111156103d757600080fd5b8201836020820111156103e957600080fd5b8035906020019184600183028401116401000000008311171561040b57600080fd5b509092509050610c59565b34801561042257600080fd5b506101e7610ced565b34801561043757600080fd5b50610440610cf3565b6040805160208082528351818301528351919283929083019185019080838360005b8381101561047a578181015183820152602001610462565b50505050905090810190601f1680156104a75780820380516001836020036101000a031916815260200191505b509250505060405180910390f35b3480156104c157600080fd5b506102b7610d1d565b3480156104d657600080fd5b506101e7610d2c565b3480156104eb57600080fd5b506101e7610d32565b34801561050057600080fd5b506102b7610d58565b34801561051557600080fd5b506101e7610d67565b34801561052a57600080fd5b5061028b610d6d565b34801561053f57600080fd5b506101e7610efc565b34801561055457600080fd5b5061055d610f02565b604080519115158252519081900360200190f35b34801561057d57600080fd5b5061028b6004803603602081101561059457600080fd5b5035610f0b565b3480156105a757600080fd5b506101e7610fd5565b3480156105bc57600080fd5b506101e7610fee565b3480156105d157600080fd5b506102b7610ff4565b3480156105e657600080fd5b5061028b600480360360408110156105fd57600080fd5b506001600160a01b038135169060200135611003565b34801561061f57600080fd5b506101e76110d0565b34801561063457600080fd5b5061028b6110d6565b60065481565b60045481565b6000546001600160a01b031633146106a4576040805162461bcd60e51b81526020600482015260196024820152782334bc32b2283934b1b2a9b0b6329d102327a92124a22222a760391b604482015290519081900360640190fd5b81816106ae6111e9565b50505050565b600d81815481106106c157fe5b6000918252602090912001546001600160a01b0316905081565b6000546001600160a01b03163314610736576040805162461bcd60e51b81526020600482015260196024820152782334bc32b2283934b1b2a9b0b6329d102327a92124a22222a760391b604482015290519081900360640190fd5b61073e6111e9565b565b600b5460ff166107815760405162461bcd60e51b8152600401808060200182810382526025815260200180611cdc6025913960400191505060405180910390fd5b600d546001905b801561084a576000600d60018303815481106107a057fe5b60009182526020808320909101546001600160a01b0316808352600c909152604090912054909150156107fe576001600160a01b038082166000908152600c60205260408120805491905560025490916107fc911683836112c3565b505b600d80548061080957fe5b600082815260209020810160001990810180546001600160a01b0319169055019055606483141561083a575061084a565b5060019091019060001901610788565b50600d546040517fbdb02e8720e171b6c4ee69c6e2919e36cbdbcbba8a27809cb6a0e1cdcd19b1d390600090a250565b600c6020526000908152604090205481565b600d545b90565b600b5460ff16156108eb576040805162461bcd60e51b815260206004820152601b60248201527f4669786564507269636553616c653a2073616c6520636c6f7365640000000000604482015290519081900360640190fd5b600854811015610942576040805162461bcd60e51b815260206004820152601d60248201527f4669786564507269636553616c653a20616d6f756e7420746f206c6f77000000604482015290519081900360640190fd5b600954158061096c5750600954336000908152600c6020526040902054610969908361142d565b11155b6109a75760405162461bcd60e51b8152600401808060200182810382526025815260200180611bfa6025913960400191505060405180910390fd5b60075442106109fd576040805162461bcd60e51b815260206004820152601f60248201527f4669786564507269636553616c653a20646561646c696e652070617373656400604482015290519081900360640190fd5b600154610a15906001600160a01b031633308461148e565b336000908152600c6020526040902054610a6c57600d80546001810182556000919091527fd7b6990105719101dabeb77144f2a3385c8033acd3af97e9423a695e81ad1eb50180546001600160a01b031916331790555b336000908152600c6020526040902054610a86908261142d565b336000908152600c6020526040902055600554610aa3908261142d565b600555604051819033907f453f432325042a06f4d628e37adb527edc2f20643c2655ccc268a47766bbf44590600090a350565b600b5460ff16610b2d576040805162461bcd60e51b815260206004820152601f60248201527f4669786564507269636553616c653a2073616c65206e6f7420636c6f73656400604482015290519081900360640190fd5b60025460005460055460045461073e936001600160a01b03908116931691610b5591906114e8565b6112c3565b600b5460ff16610bb1576040805162461bcd60e51b815260206004820152601f60248201527f4669786564507269636553616c653a2073616c65206e6f7420636c6f73656400604482015290519081900360640190fd5b336000908152600c6020526040902054610bfc5760405162461bcd60e51b8152600401808060200182810382526022815260200180611c536022913960400191505060405180910390fd5b336000818152600c6020526040812080549190556002549091610c29916001600160a01b031690836112c3565b604051819033907f3c2de78904a594f8b0dbe9127dd435a38468bf014499e0104abfebb5894b8f6690600090a350565b6000806000806000806000806000808b8b610140811015610c7957600080fd5b506001600160a01b03813581169b50602082013581169a5060408201359950606082013598506080820135975060a0820135965060c0820135955060e08201359450610100820135935061012090910135169050610cdf8a8a8a8a8a8a8a8a8a8a611545565b505050505050505050505050565b60055481565b6040518060400160405280600e81526020016d4669786564507269636553616c6560901b81525081565b6001546001600160a01b031681565b60035481565b6000426007541015610d4657506000610890565b600754610d5390426114e8565b905090565b6000546001600160a01b031681565b600a5481565b6000600a5411610dc4576040805162461bcd60e51b815260206004820152601f60248201527f4669786564507269636553616c653a206e6f206d696e756d756d526169736500604482015290519081900360640190fd5b6007544211610e045760405162461bcd60e51b8152600401808060200182810382526022815260200180611c756022913960400191505060405180910390fd5b336000908152600c6020526040902054610e4f5760405162461bcd60e51b8152600401808060200182810382526034815260200180611c1f6034913960400191505060405180910390fd5b600a5460055410610e915760405162461bcd60e51b8152600401808060200182810382526024815260200180611b8f6024913960400191505060405180910390fd5b336000818152600c602052604081208054919055600b805460ff19166001908117909155549091610ecc916001600160a01b031690836112c3565b604051819033907ff64ed2b021f1a87018cd9640c6befb1fd75c93ff7534a4bbc8bd2f674d5d317290600090a350565b60075481565b600b5460ff1681565b6000546001600160a01b03163314610f66576040805162461bcd60e51b81526020600482015260196024820152782334bc32b2283934b1b2a9b0b6329d102327a92124a22222a760391b604482015290519081900360640190fd5b6007544211610fbc576040805162461bcd60e51b815260206004820152601e60248201527f4669786564507269636553616c653a2073616c65206e6f7420656e6465640000604482015290519081900360640190fd5b600054610fd2906001600160a01b0316826117c8565b50565b6000610d536005546004546114e890919063ffffffff16565b60095481565b6002546001600160a01b031681565b6000546001600160a01b0316331461105e576040805162461bcd60e51b81526020600482015260196024820152782334bc32b2283934b1b2a9b0b6329d102327a92124a22222a760391b604482015290519081900360640190fd5b60075442116110b4576040805162461bcd60e51b815260206004820152601e60248201527f4669786564507269636553616c653a2073616c65206e6f7420656e6465640000604482015290519081900360640190fd5b6000546110cc9083906001600160a01b0316836112c3565b5050565b60085481565b600b5460ff161561112e576040805162461bcd60e51b815260206004820152601e60248201527f4669786564507269636553616c653a20616c726561647920636c6f7365640000604482015290519081900360640190fd5b600754421161116e5760405162461bcd60e51b8152600401808060200182810382526022815260200180611c756022913960400191505060405180910390fd5b600a5460055410156111b15760405162461bcd60e51b8152600401808060200182810382526028815260200180611d2b6028913960400191505060405180910390fd5b600b805460ff191660011790556040517f4c013bd73202fde3c7cfe26ca486d0882f2c5b2fc9c761b15212f759bd2347dd90600090a1565b600b5460ff16611240576040805162461bcd60e51b815260206004820152601f60248201527f4669786564507269636553616c653a2073616c65206e6f7420636c6f73656400604482015290519081900360640190fd5b600154600054604080516370a0823160e01b8152306004820152905161073e936001600160a01b0390811693169183916370a0823191602480820192602092909190829003018186803b15801561129657600080fd5b505afa1580156112aa573d6000803e3d6000fd5b505050506040513d60208110156112c057600080fd5b50515b604080516001600160a01b038481166024830152604480830185905283518084039091018152606490920183526020820180516001600160e01b031663a9059cbb60e01b178152925182516000946060949389169392918291908083835b602083106113405780518252601f199092019160209182019101611321565b6001836020036101000a0380198251168184511680821785525050505050509050019150506000604051808303816000865af19150503d80600081146113a2576040519150601f19603f3d011682016040523d82523d6000602084013e6113a7565b606091505b50915091508180156113d55750805115806113d557508080602001905160208110156113d257600080fd5b50515b611426576040805162461bcd60e51b815260206004820152601f60248201527f5472616e7366657248656c7065723a205452414e534645525f4641494c454400604482015290519081900360640190fd5b5050505050565b600082820183811015611487576040805162461bcd60e51b815260206004820152601b60248201527f536166654d6174683a206164646974696f6e206f766572666c6f770000000000604482015290519081900360640190fd5b9392505050565b604080516001600160a01b0380861660248301528416604482015260648082018490528251808303909101815260849091019091526020810180516001600160e01b03166323b872dd60e01b1790526106ae9085906118c0565b60008282111561153f576040805162461bcd60e51b815260206004820152601e60248201527f536166654d6174683a207375627472616374696f6e206f766572666c6f770000604482015290519081900360640190fd5b50900390565b886001600160a01b03168a6001600160a01b031614156115ac576040805162461bcd60e51b815260206004820152601e60248201527f4669786564507269636553616c653a20696e76616c696420746f6b656e730000604482015290519081900360640190fd5b600088116115eb5760405162461bcd60e51b8152600401808060200182810382526022815260200180611c976022913960400191505060405180910390fd5b6000871161162a5760405162461bcd60e51b8152600401808060200182810382526025815260200180611d536025913960400191505060405180910390fd5b42861180611636575085155b6116715760405162461bcd60e51b8152600401808060200182810382526021815260200180611bd96021913960400191505060405180910390fd5b8585118061167d575084155b6116ce576040805162461bcd60e51b815260206004820152601f60248201527f4669786564507269636553616c653a20696e76616c696420656e644461746500604482015290519081900360640190fd5b600180546001600160a01b03808d166001600160a01b031992831617909255600280548c8416908316179081905560038b905560048a90556006899055600788905560088790556009869055600a85905560008054858516931692909217909155600b805460ff19169055611746911633308a61148e565b604080516001600160a01b03808d1682528b1660208201528082018a9052606081018990526080810188905260a0810187905260c0810186905260e08101859052610100810184905290517f1dfbb8f017a00126975ddda23f4b82c997f8cabec5551af137f65f2ff90609a0918190036101200190a150505050505050505050565b604080516000808252602082019092526001600160a01b0384169083906040518082805190602001908083835b602083106118145780518252601f1990920191602091820191016117f5565b6001836020036101000a03801982511681845116808217855250505050505090500191505060006040518083038185875af1925050503d8060008114611876576040519150601f19603f3d011682016040523d82523d6000602084013e61187b565b606091505b50509050806118bb5760405162461bcd60e51b8152600401808060200182810382526023815260200180611cb96023913960400191505060405180910390fd5b505050565b6060611915826040518060400160405280602081526020017f5361666545524332303a206c6f772d6c6576656c2063616c6c206661696c6564815250856001600160a01b03166119719092919063ffffffff16565b8051909150156118bb5780806020019051602081101561193457600080fd5b50516118bb5760405162461bcd60e51b815260040180806020018281038252602a815260200180611d01602a913960400191505060405180910390fd5b60606119808484600085611988565b949350505050565b6060824710156119c95760405162461bcd60e51b8152600401808060200182810382526026815260200180611bb36026913960400191505060405180910390fd5b6119d285611ae4565b611a23576040805162461bcd60e51b815260206004820152601d60248201527f416464726573733a2063616c6c20746f206e6f6e2d636f6e7472616374000000604482015290519081900360640190fd5b60006060866001600160a01b031685876040518082805190602001908083835b60208310611a625780518252601f199092019160209182019101611a43565b6001836020036101000a03801982511681845116808217855250505050505090500191505060006040518083038185875af1925050503d8060008114611ac4576040519150601f19603f3d011682016040523d82523d6000602084013e611ac9565b606091505b5091509150611ad9828286611aea565b979650505050505050565b3b151590565b60608315611af9575081611487565b825115611b095782518084602001fd5b8160405162461bcd60e51b81526004018080602001828103825283818151815260200191508051906020019080838360005b83811015611b53578181015183820152602001611b3b565b50505050905090810190601f168015611b805780820380516001836020036101000a031916815260200191505b509250505060405180910390fdfe4669786564507269636553616c653a206d696e756d756d52616973652072656163686564416464726573733a20696e73756666696369656e742062616c616e636520666f722063616c6c4669786564507269636553616c653a20696e76616c6964207374617274446174654669786564507269636553616c653a20616c6c6f636174696f6e4d617820726561636865644669786564507269636553616c653a206e6f20746f6b656e7320707572636861736564206279207468697320696e766573746f724669786564507269636553616c653a206e6f20746f6b656e7320746f20636c61696d4669786564507269636553616c653a20656e6444617465206e6f74207061737365644669786564507269636553616c653a20696e76616c696420746f6b656e50726963655472616e7366657248656c7065723a204554485f5452414e534645525f4641494c45444669786564507269636541756374696f6e3a2061756374696f6e206e6f7420636c6f7365645361666545524332303a204552433230206f7065726174696f6e20646964206e6f7420737563636565644669786564507269636553616c653a206d696e756d756d5261697365206e6f7420726561636865644669786564507269636553616c653a20696e76616c696420746f6b656e73466f7253616c65a2646970667358221220399db51d335b959a209eb78394c6a7734737e2a11f03b0540bf1cac9766cc4fc64736f6c634300060c0033",
  "linkReferences": {},
  "deployedLinkReferences": {}
}