{
  "_format": "hh-sol-artifact-1",
  "contractName": "FixedPriceSaleTemplate",
  "sourceName": "contracts/templates/FixedPriceSaleTemplate.sol",
  "abi": [
    {
      "inputs": [],
      "stateMutability": "nonpayable",
      "type": "constructor"
    },
    {
      "anonymous": false,
      "inputs": [
        {
          "indexed": false,
          "internalType": "address",
          "name": "tokenIn",
          "type": "address"
        },
        {
          "indexed": false,
          "internalType": "address",
          "name": "tokenOut",
          "type": "address"
        },
        {
          "indexed": false,
          "internalType": "uint256",
          "name": "tokenPrice",
          "type": "uint256"
        },
        {
          "indexed": false,
          "internalType": "uint256",
          "name": "tokensForSale",
          "type": "uint256"
        },
        {
          "indexed": false,
          "internalType": "uint256",
          "name": "startDate",
          "type": "uint256"
        },
        {
          "indexed": false,
          "internalType": "uint256",
          "name": "endDate",
          "type": "uint256"
        },
        {
          "indexed": false,
          "internalType": "uint256",
          "name": "minCommitment",
          "type": "uint256"
        },
        {
          "indexed": false,
          "internalType": "uint256",
          "name": "maxCommitment",
          "type": "uint256"
        },
        {
          "indexed": false,
          "internalType": "uint256",
          "name": "minRaise",
          "type": "uint256"
        },
        {
          "indexed": false,
          "internalType": "bool",
          "name": "participantList",
          "type": "bool"
        }
      ],
      "name": "TemplateInitialized",
      "type": "event"
    },
    {
      "inputs": [],
      "name": "aquaFactory",
      "outputs": [
        {
          "internalType": "contract IAquaFactory",
          "name": "",
          "type": "address"
        }
      ],
      "stateMutability": "view",
      "type": "function"
    },
    {
      "inputs": [],
      "name": "createSale",
      "outputs": [
        {
          "internalType": "address",
          "name": "newSale",
          "type": "address"
        }
      ],
      "stateMutability": "payable",
      "type": "function"
    },
    {
      "inputs": [],
      "name": "encodedInitData",
      "outputs": [
        {
          "internalType": "bytes",
          "name": "",
          "type": "bytes"
        }
      ],
      "stateMutability": "view",
      "type": "function"
    },
    {
      "inputs": [
        {
          "internalType": "bytes",
          "name": "_data",
          "type": "bytes"
        }
      ],
      "name": "init",
      "outputs": [],
      "stateMutability": "nonpayable",
      "type": "function"
    },
    {
      "inputs": [],
      "name": "isInitialized",
      "outputs": [
        {
          "internalType": "bool",
          "name": "",
          "type": "bool"
        }
      ],
      "stateMutability": "view",
      "type": "function"
    },
    {
      "inputs": [],
      "name": "isSaleCreated",
      "outputs": [
        {
          "internalType": "bool",
          "name": "",
          "type": "bool"
        }
      ],
      "stateMutability": "view",
      "type": "function"
    },
    {
      "inputs": [],
      "name": "metaDataContentHash",
      "outputs": [
        {
          "internalType": "string",
          "name": "",
          "type": "string"
        }
      ],
      "stateMutability": "view",
      "type": "function"
    },
    {
      "inputs": [],
      "name": "saleLauncher",
      "outputs": [
        {
          "internalType": "contract ISaleLauncher",
          "name": "",
          "type": "address"
        }
      ],
      "stateMutability": "view",
      "type": "function"
    },
    {
      "inputs": [],
      "name": "saleTemplateId",
      "outputs": [
        {
          "internalType": "uint256",
          "name": "",
          "type": "uint256"
        }
      ],
      "stateMutability": "view",
      "type": "function"
    },
    {
      "inputs": [],
      "name": "templateLauncher",
      "outputs": [
        {
          "internalType": "address",
          "name": "",
          "type": "address"
        }
      ],
      "stateMutability": "view",
      "type": "function"
    },
    {
      "inputs": [],
      "name": "templateManager",
      "outputs": [
        {
          "internalType": "address",
          "name": "",
          "type": "address"
        }
      ],
      "stateMutability": "view",
      "type": "function"
    },
    {
      "inputs": [],
      "name": "templateName",
      "outputs": [
        {
          "internalType": "string",
          "name": "",
          "type": "string"
        }
      ],
      "stateMutability": "view",
      "type": "function"
    },
    {
      "inputs": [],
      "name": "tokenOut",
      "outputs": [
        {
          "internalType": "address",
          "name": "",
          "type": "address"
        }
      ],
      "stateMutability": "view",
      "type": "function"
    },
    {
      "inputs": [],
      "name": "tokenSupplier",
      "outputs": [
        {
          "internalType": "address",
          "name": "",
          "type": "address"
        }
      ],
      "stateMutability": "view",
      "type": "function"
    },
    {
      "inputs": [],
      "name": "tokensForSale",
      "outputs": [
        {
          "internalType": "uint256",
          "name": "",
          "type": "uint256"
        }
      ],
      "stateMutability": "view",
      "type": "function"
    }
  ],
  "bytecode": "0x608060405234801561001057600080fd5b506040805180820190915260168082527f4669786564507269636553616c6554656d706c61746500000000000000000000602090920191825261005591600091610085565b5060408051808201909152600280825261060f60f31b602090920191825261007f91600191610085565b50610118565b828054600181600116156101000203166002900490600052602060002090601f016020900481019282601f106100c657805160ff19168380011785556100f3565b828001600101855582156100f3579182015b828111156100f35782518255916020019190600101906100d8565b506100ff929150610103565b5090565b5b808211156100ff5760008155600101610104565b610dca806101276000396000f3fe6080604052600436106100e85760003560e01c8063613bb30b1161008a578063906652be11610059578063906652be146102f5578063d0202d3b146102fd578063d4c33f2a14610312578063f569720d14610327576100e8565b8063613bb30b146102a157806366b210c2146102b657806369708c69146102cb57806369f30fd1146102e0576100e8565b8063392e53cd116100c6578063392e53cd146101cf5780634d68287e146101f85780634ddf47d41461020d5780635aeb431e1461028c576100e8565b8063047f6fe6146100ed57806312aef8c31461011e5780632a98bdbd14610145575b600080fd5b3480156100f957600080fd5b5061010261033c565b604080516001600160a01b039092168252519081900360200190f35b34801561012a57600080fd5b5061013361034b565b60408051918252519081900360200190f35b34801561015157600080fd5b5061015a610351565b6040805160208082528351818301528351919283929083019185019080838360005b8381101561019457818101518382015260200161017c565b50505050905090810190601f1680156101c15780820380516001836020036101000a031916815260200191505b509250505060405180910390f35b3480156101db57600080fd5b506101e46103df565b604080519115158252519081900360200190f35b34801561020457600080fd5b506101026103e8565b34801561021957600080fd5b5061028a6004803603602081101561023057600080fd5b81019060208101813564010000000081111561024b57600080fd5b82018360208201111561025d57600080fd5b8035906020019184600183028401116401000000008311171561027f57600080fd5b5090925090506103fd565b005b34801561029857600080fd5b506101e46104b6565b3480156102ad57600080fd5b506101336104c4565b3480156102c257600080fd5b5061015a6104ca565b3480156102d757600080fd5b50610102610524565b3480156102ec57600080fd5b5061015a610533565b61010261058e565b34801561030957600080fd5b5061010261074e565b34801561031e57600080fd5b5061010261075d565b34801561033357600080fd5b5061010261076c565b6003546001600160a01b031681565b60085481565b6009805460408051602060026001851615610100026000190190941693909304601f810184900484028201840190925281815292918301828280156103d75780601f106103ac576101008083540402835291602001916103d7565b820191906000526020600020905b8154815290600101906020018083116103ba57829003601f168201915b505050505081565b600a5460ff1681565b600a546201000090046001600160a01b031681565b60008060008060008060008060008060008060008e8e6101a081101561042257600080fd5b506001600160a01b03813581169e5060208201359d50604082013581169c50606082013581169b50608082013516995060a0810135985060c0810135975060e0810135965061010081013595506101208101359450610140810135935061016081013592506101800135151590506104a58d8d8d8d8d8d8d8d8d8d8d8d8d61077b565b505050505050505050505050505050565b600a54610100900460ff1681565b60055481565b60018054604080516020600284861615610100026000190190941693909304601f810184900484028201840190925281815292918301828280156103d75780601f106103ac576101008083540402835291602001916103d7565b6002546001600160a01b031681565b6000805460408051602060026001851615610100026000190190941693909304601f810184900484028201840190925281815292918301828280156103d75780601f106103ac576101008083540402835291602001916103d7565b600a54600090610100900460ff16156105d85760405162461bcd60e51b815260040180806020018281038252602c815260200180610d48602c913960400191505060405180910390fd5b6006546001600160a01b031633146106215760405162461bcd60e51b8152600401808060200182810382526021815260200180610d746021913960400191505060405180910390fd5b6002805460055460075460085460065460405163da550d8960e01b8152600481018581526001600160a01b0394851660248301819052604483018590529285166064830181905260a0608484019081526009805460001960018216156101000201169a909a0460a48501819052969098169863da550d89983498979596959294919392909160c40190849080156106f95780601f106106ce576101008083540402835291602001916106f9565b820191906000526020600020905b8154815290600101906020018083116106dc57829003601f168201915b505096505050505050506020604051808303818588803b15801561071c57600080fd5b505af1158015610730573d6000803e3d6000fd5b50505050506040513d602081101561074757600080fd5b5051919050565b6007546001600160a01b031681565b6004546001600160a01b031681565b6006546001600160a01b031681565b600a5460ff16156107bd5760405162461bcd60e51b815260040180806020018281038252602a815260200180610d1e602a913960400191505060405180910390fd5b600280546001600160a01b0319166001600160a01b038f169081179091556040805163c45a015560e01b8152905163c45a015591600480820192602092909190829003018186803b15801561081157600080fd5b505afa158015610825573d6000803e3d6000fd5b505050506040513d602081101561083b57600080fd5b5051600380546001600160a01b0319166001600160a01b03928316179081905560408051636a619f9560e11b81529051919092169163d4c33f2a916004808301926020929190829003018186803b15801561089557600080fd5b505afa1580156108a9573d6000803e3d6000fd5b505050506040513d60208110156108bf57600080fd5b5051600480546001600160a01b0319166001600160a01b03928316178155600354604080516326b4143f60e11b815290519190931692634d68287e9281810192602092909190829003018186803b15801561091957600080fd5b505afa15801561092d573d6000803e3d6000fd5b505050506040513d602081101561094357600080fd5b8101908080519060200190929190505050600a60026101000a8154816001600160a01b0302191690836001600160a01b031602179055508b6005819055508660088190555088600760006101000a8154816001600160a01b0302191690836001600160a01b031602179055508a600660006101000a8154816001600160a01b0302191690836001600160a01b031602179055506001600a60006101000a81548160ff02191690831515021790555060008115610b6d576000600a60029054906101000a90046001600160a01b03166001600160a01b03166332cf5cb66040518163ffffffff1660e01b815260040160206040518083038186803b158015610a4957600080fd5b505afa158015610a5d573d6000803e3d6000fd5b505050506040513d6020811015610a7357600080fd5b505160408051600180825281830190925291925060609190602080830190803683370190505090508d81600081518110610aa957fe5b6001600160a01b0392831660209182029290920181019190915260405163d341c81360e01b8152600481018281528451602483015284519386169363d341c8139386938392604490910191858101910280838360005b83811015610b17578181015183820152602001610aff565b5050505090500192505050602060405180830381600087803b158015610b3c57600080fd5b505af1158015610b50573d6000803e3d6000fd5b505050506040513d6020811015610b6657600080fd5b5051925050505b600454604080516001600160a01b03808f16602080840191909152818f1683850152606083018e9052608083018d905260a083018c905260c083018b905260e083018a905261010083018990526101208301889052938116610140830152841661016080830191909152825180830390910181526101809091019091528051610bfa926009920190610c8a565b50604080516001600160a01b03808e1682528c1660208201528082018b9052606081018a90526080810189905260a0810188905260c0810187905260e08101869052610100810185905283151561012082015290517f1da4a232fc7842598a5c5385965b07a201fe830ff45c2d6c14614ed4e28f0e11918190036101400190a15050505050505050505050505050565b828054600181600116156101000203166002900490600052602060002090601f016020900481019282601f10610ccb57805160ff1916838001178555610cf8565b82800160010185558215610cf8579182015b82811115610cf8578251825591602001919060010190610cdd565b50610d04929150610d08565b5090565b5b80821115610d045760008155600101610d0956fe4669786564507269636553616c6554656d706c6174653a20414c454144595f494e495449414c495a45444669786564507269636553616c6554656d706c6174653a2053616c6520616c726561647920637265617465644669786564507269636553616c6554656d706c6174653a20464f5242494444454ea2646970667358221220f5949f724d18029f8775cca32a206fb536e362994fbb685a73089890577124c764736f6c634300060c0033",
  "linkReferences": {},
  "deployedLinkReferences": {}
}