{
  "_format": "hh-sol-artifact-1",
  "contractName": "MesaFactory",
  "sourceName": "contracts/MesaFactory.sol",
  "abi": [
    {
      "inputs": [],
      "stateMutability": "nonpayable",
      "type": "constructor"
    },
    {
      "anonymous": false,
      "inputs": [
        {
          "indexed": false,
          "internalType": "address",
          "name": "feeManager",
          "type": "address"
        },
        {
          "indexed": false,
          "internalType": "address",
          "name": "feeTo",
          "type": "address"
        },
        {
          "indexed": false,
          "internalType": "address",
          "name": "templateManager",
          "type": "address"
        },
        {
          "indexed": false,
          "internalType": "address",
          "name": "templateLauncher",
          "type": "address"
        },
        {
          "indexed": false,
          "internalType": "uint256",
          "name": "templateFee",
          "type": "uint256"
        },
        {
          "indexed": false,
          "internalType": "uint256",
          "name": "feeNumerator",
          "type": "uint256"
        },
        {
          "indexed": false,
          "internalType": "uint256",
          "name": "saleFee",
          "type": "uint256"
        }
      ],
      "name": "FactoryInitialized",
      "type": "event"
    },
    {
      "anonymous": false,
      "inputs": [
        {
          "indexed": true,
          "internalType": "address",
          "name": "feeManager",
          "type": "address"
        }
      ],
      "name": "SetFeeManager",
      "type": "event"
    },
    {
      "anonymous": false,
      "inputs": [
        {
          "indexed": true,
          "internalType": "uint256",
          "name": "feeNumerator",
          "type": "uint256"
        }
      ],
      "name": "SetFeeNumerator",
      "type": "event"
    },
    {
      "anonymous": false,
      "inputs": [
        {
          "indexed": true,
          "internalType": "address",
          "name": "feeTo",
          "type": "address"
        }
      ],
      "name": "SetFeeTo",
      "type": "event"
    },
    {
      "anonymous": false,
      "inputs": [
        {
          "indexed": true,
          "internalType": "uint256",
          "name": "saleFee",
          "type": "uint256"
        }
      ],
      "name": "SetSaleFee",
      "type": "event"
    },
    {
      "anonymous": false,
      "inputs": [
        {
          "indexed": true,
          "internalType": "uint256",
          "name": "templateFee",
          "type": "uint256"
        }
      ],
      "name": "SetTemplateFee",
      "type": "event"
    },
    {
      "anonymous": false,
      "inputs": [
        {
          "indexed": true,
          "internalType": "address",
          "name": "templateLauncher",
          "type": "address"
        }
      ],
      "name": "SetTemplateLauncher",
      "type": "event"
    },
    {
      "anonymous": false,
      "inputs": [
        {
          "indexed": true,
          "internalType": "address",
          "name": "templateManager",
          "type": "address"
        }
      ],
      "name": "SetTemplateManager",
      "type": "event"
    },
    {
      "anonymous": false,
      "inputs": [
        {
          "indexed": true,
          "internalType": "address",
          "name": "template",
          "type": "address"
        },
        {
          "indexed": false,
          "internalType": "uint256",
          "name": "templateId",
          "type": "uint256"
        }
      ],
      "name": "TemplateLaunched",
      "type": "event"
    },
    {
      "inputs": [
        {
          "internalType": "uint256",
          "name": "",
          "type": "uint256"
        }
      ],
      "name": "allSales",
      "outputs": [
        {
          "internalType": "address",
          "name": "",
          "type": "address"
        }
      ],
      "stateMutability": "view",
      "type": "function"
    },
    {
      "inputs": [],
      "name": "feeDenominator",
      "outputs": [
        {
          "internalType": "uint256",
          "name": "",
          "type": "uint256"
        }
      ],
      "stateMutability": "view",
      "type": "function"
    },
    {
      "inputs": [],
      "name": "feeManager",
      "outputs": [
        {
          "internalType": "address",
          "name": "",
          "type": "address"
        }
      ],
      "stateMutability": "view",
      "type": "function"
    },
    {
      "inputs": [],
      "name": "feeNumerator",
      "outputs": [
        {
          "internalType": "uint256",
          "name": "",
          "type": "uint256"
        }
      ],
      "stateMutability": "view",
      "type": "function"
    },
    {
      "inputs": [],
      "name": "feeTo",
      "outputs": [
        {
          "internalType": "address",
          "name": "",
          "type": "address"
        }
      ],
      "stateMutability": "view",
      "type": "function"
    },
    {
      "inputs": [
        {
          "internalType": "address",
          "name": "_feeManager",
          "type": "address"
        },
        {
          "internalType": "address",
          "name": "_feeTo",
          "type": "address"
        },
        {
          "internalType": "address",
          "name": "_templateManager",
          "type": "address"
        },
        {
          "internalType": "address",
          "name": "_templateLauncher",
          "type": "address"
        },
        {
          "internalType": "uint256",
          "name": "_templateFee",
          "type": "uint256"
        },
        {
          "internalType": "uint256",
          "name": "_feeNumerator",
          "type": "uint256"
        },
        {
          "internalType": "uint256",
          "name": "_saleFee",
          "type": "uint256"
        }
      ],
      "name": "initialize",
      "outputs": [],
      "stateMutability": "nonpayable",
      "type": "function"
    },
    {
      "inputs": [
        {
          "internalType": "uint256",
          "name": "_templateId",
          "type": "uint256"
        },
        {
          "internalType": "bytes",
          "name": "_data",
          "type": "bytes"
        }
      ],
      "name": "launchTemplate",
      "outputs": [
        {
          "internalType": "address",
          "name": "newSale",
          "type": "address"
        }
      ],
      "stateMutability": "payable",
      "type": "function"
    },
    {
      "inputs": [],
      "name": "numberOfSales",
      "outputs": [
        {
          "internalType": "uint256",
          "name": "",
          "type": "uint256"
        }
      ],
      "stateMutability": "view",
      "type": "function"
    },
    {
      "inputs": [],
      "name": "saleFee",
      "outputs": [
        {
          "internalType": "uint256",
          "name": "",
          "type": "uint256"
        }
      ],
      "stateMutability": "view",
      "type": "function"
    },
    {
      "inputs": [
        {
          "internalType": "address",
          "name": "_feeManager",
          "type": "address"
        }
      ],
      "name": "setFeeManager",
      "outputs": [],
      "stateMutability": "nonpayable",
      "type": "function"
    },
    {
      "inputs": [
        {
          "internalType": "uint256",
          "name": "_feeNumerator",
          "type": "uint256"
        }
      ],
      "name": "setFeeNumerator",
      "outputs": [],
      "stateMutability": "nonpayable",
      "type": "function"
    },
    {
      "inputs": [
        {
          "internalType": "address",
          "name": "_feeTo",
          "type": "address"
        }
      ],
      "name": "setFeeTo",
      "outputs": [],
      "stateMutability": "nonpayable",
      "type": "function"
    },
    {
      "inputs": [
        {
          "internalType": "uint256",
          "name": "_saleFee",
          "type": "uint256"
        }
      ],
      "name": "setSaleFee",
      "outputs": [],
      "stateMutability": "nonpayable",
      "type": "function"
    },
    {
      "inputs": [
        {
          "internalType": "uint256",
          "name": "_templateFee",
          "type": "uint256"
        }
      ],
      "name": "setTemplateFee",
      "outputs": [],
      "stateMutability": "nonpayable",
      "type": "function"
    },
    {
      "inputs": [
        {
          "internalType": "address",
          "name": "_templateLauncher",
          "type": "address"
        }
      ],
      "name": "setTemplateLauncher",
      "outputs": [],
      "stateMutability": "nonpayable",
      "type": "function"
    },
    {
      "inputs": [
        {
          "internalType": "address",
          "name": "_templateManager",
          "type": "address"
        }
      ],
      "name": "setTemplateManager",
      "outputs": [],
      "stateMutability": "nonpayable",
      "type": "function"
    },
    {
      "inputs": [],
      "name": "templateFee",
      "outputs": [
        {
          "internalType": "uint256",
          "name": "",
          "type": "uint256"
        }
      ],
      "stateMutability": "view",
      "type": "function"
    },
    {
      "inputs": [],
      "name": "templateId",
      "outputs": [
        {
          "internalType": "uint256",
          "name": "",
          "type": "uint256"
        }
      ],
      "stateMutability": "view",
      "type": "function"
    },
    {
      "inputs": [],
      "name": "templateLauncher",
      "outputs": [
        {
          "internalType": "address",
          "name": "",
          "type": "address"
        }
      ],
      "stateMutability": "view",
      "type": "function"
    },
    {
      "inputs": [],
      "name": "templateManager",
      "outputs": [
        {
          "internalType": "address",
          "name": "",
          "type": "address"
        }
      ],
      "stateMutability": "view",
      "type": "function"
    }
  ],
  "bytecode": "0x60a06040526103e86080526009805460ff1916905534801561002057600080fd5b50608051610b9f61003b600039806104875250610b9f6000f3fe60806040526004361061011f5760003560e01c80637aa77f29116100a0578063d4c33f2a11610064578063d4c33f2a1461038a578063d53952c01461039f578063e77fc7a4146103c9578063e86dea4a14610428578063f46901ed1461043d5761011f565b80637aa77f29146102d95780639afff844146102ee578063a45db91114610321578063bdcafc551461034b578063d0fb0203146103755761011f565b806341a7ab1b116100e757806341a7ab1b146101bb578063472d35b9146102325780634d68287e146102675780635b30b4281461027c5780636b0cd167146102a65761011f565b8063017e7e5814610124578063178021e314610155578063180b0d7e1461017c57806321745c1514610191578063407e9fd1146101a6575b600080fd5b34801561013057600080fd5b50610139610470565b604080516001600160a01b039092168252519081900360200190f35b34801561016157600080fd5b5061016a61047f565b60408051918252519081900360200190f35b34801561018857600080fd5b5061016a610485565b34801561019d57600080fd5b5061016a6104a9565b3480156101b257600080fd5b5061016a6104af565b610139600480360360408110156101d157600080fd5b813591908101906040810160208201356401000000008111156101f357600080fd5b82018360208201111561020557600080fd5b8035906020019184600183028401116401000000008311171561022757600080fd5b5090925090506104b5565b34801561023e57600080fd5b506102656004803603602081101561025557600080fd5b50356001600160a01b03166105f7565b005b34801561027357600080fd5b5061013961068e565b34801561028857600080fd5b506101396004803603602081101561029f57600080fd5b503561069d565b3480156102b257600080fd5b50610265600480360360208110156102c957600080fd5b50356001600160a01b03166106c4565b3480156102e557600080fd5b5061016a61075b565b3480156102fa57600080fd5b506102656004803603602081101561031157600080fd5b50356001600160a01b0316610761565b34801561032d57600080fd5b506102656004803603602081101561034457600080fd5b50356107f8565b34801561035757600080fd5b506102656004803603602081101561036e57600080fd5b5035610875565b34801561038157600080fd5b506101396108f5565b34801561039657600080fd5b50610139610904565b3480156103ab57600080fd5b50610265600480360360208110156103c257600080fd5b5035610913565b3480156103d557600080fd5b50610265600480360360e08110156103ec57600080fd5b506001600160a01b0381358116916020810135821691604082013581169160608101359091169060808101359060a08101359060c00135610993565b34801561043457600080fd5b5061016a610aac565b34801561044957600080fd5b506102656004803603602081101561046057600080fd5b50356001600160a01b0316610ab2565b6002546001600160a01b031681565b60015481565b7f000000000000000000000000000000000000000000000000000000000000000081565b60075490565b60065481565b600554604080516341a7ab1b60e01b81526004810186815260248201928352604482018590526000936001600160a01b0316926341a7ab1b9234928992899289929190606401848480828437600083820152604051601f909101601f191690920196506020955090935050508184039050818588803b15801561053757600080fd5b505af115801561054b573d6000803e3d6000fd5b50505050506040513d602081101561056257600080fd5b50516040805186815290519192506001600160a01b038316917fb4e0c04d31936037ef6d0ff42d7e7dbea22f4842fecb0702df62c79e70d918619181900360200190a2600780546001810182556000919091527fa66cc928b5edb82af9bd49922954155ab7b0942694bea4ce44661d9a8736c6880180546001600160a01b0319166001600160a01b0383161790559392505050565b6003546001600160a01b03163314610644576040805162461bcd60e51b81526020600482015260166024820152600080516020610b4a833981519152604482015290519081900360640190fd5b600380546001600160a01b0319166001600160a01b0383169081179091556040517f5d0517e3a4eabea892d9750138cd21d4a6cf3b935b43d0598df7055f463819b290600090a250565b6005546001600160a01b031681565b600781815481106106aa57fe5b6000918252602090912001546001600160a01b0316905081565b6004546001600160a01b03163314610711576040805162461bcd60e51b81526020600482015260166024820152600080516020610b4a833981519152604482015290519081900360640190fd5b600580546001600160a01b0319166001600160a01b0383169081179091556040517f79df299870e2d96fc19ed876c317dad718a6b7bcddbee389016cc81daa9972f690600090a250565b60085481565b6004546001600160a01b031633146107ae576040805162461bcd60e51b81526020600482015260166024820152600080516020610b4a833981519152604482015290519081900360640190fd5b600480546001600160a01b0319166001600160a01b0383169081179091556040517f9a6aeabb5aa9c1121a3c35c1d8b07a62cfcb6b10f09c83e85cd44c316be661fe90600090a250565b6003546001600160a01b03163314610845576040805162461bcd60e51b81526020600482015260166024820152600080516020610b4a833981519152604482015290519081900360640190fd5b600081815560405182917f683d2ab2955f064231f4bac9d1c4c37c54876be8a38c5dc695e27ee95af15c1191a250565b6003546001600160a01b031633146108c2576040805162461bcd60e51b81526020600482015260166024820152600080516020610b4a833981519152604482015290519081900360640190fd5b600181905560405181907f7fbb3978a2405e145c96e08f191a0863d75cf30a4af7325af248cb4bdfd42cd990600090a250565b6003546001600160a01b031681565b6004546001600160a01b031681565b6003546001600160a01b03163314610960576040805162461bcd60e51b81526020600482015260166024820152600080516020610b4a833981519152604482015290519081900360640190fd5b600681905560405181907f5382b4b1d41244f0366858f3c70eb86ec8de5016e58fa4798462c35bc04d14c790600090a250565b60095460ff16156109eb576040805162461bcd60e51b815260206004820181905260248201527f4d657361466163746f72793a20414c52454144595f494e495449414c495a4544604482015290519081900360640190fd5b600380546001600160a01b03808a166001600160a01b03199283168117909355600280548a831690841681179091556000869055600480548a8416908516811790915560058054938a16939094168317909355600687905560018590556040805194855260208501919091528381019290925260608301526080820185905260a0820184905260c08201839052517fc7d077c13e40f83f5675efc10cf5d4c37999738ffecd522796fb9796a8c8b7799181900360e00190a150505050505050565b60005481565b6003546001600160a01b03163314610aff576040805162461bcd60e51b81526020600482015260166024820152600080516020610b4a833981519152604482015290519081900360640190fd5b600280546001600160a01b0319166001600160a01b0383169081179091556040517ff6b59ffc88fbb27f33470b919e00b41139ee340eb349521f0cbbc1504ce29c3e90600090a25056fe4d657361466163746f72793a20464f5242494444454e00000000000000000000a26469706673582212200a48a8507accd7f1f9d9af8d3b8d651c23f3be47d2d83931294dbc14b6fb8cfa64736f6c634300060c0033",
  "linkReferences": {},
  "deployedLinkReferences": {}
}